:100000001EC0A6C2E2C234C025C232C031C030C058
:100010002FC02EC02DC02CC02BC02AC029C028C084
:1000200027C026C025C024C023C06EC059C05AC0F6
:100030005BC05CC05DC05EC05FC060C061C01124B9
:100040001FBECFEDCDBF10E0A0E6B0E0EAEDF6E0D8
:1000500002C005900D92AC36B107D9F720E0ACE6AE
:10006000B0E001C01D92AC37B207E1F74BD133C30A
:10007000C7CF282F30E0121613064CF480E02A5028
:1000800031090AF08F5F12161306CCF301C080E02D
:10009000332314F4265F01C020E08295807F822BF9
:1000A0000895982F9F7082958F709A3020F09A5003
:1000B0008F5F9A30E0F7882349F0282F2150F1F71D
:1000C000282F220F220F820F880F980F892F089553
:1000D00090E08A309105B0F4FC01EB5EFF4F09948B
:1000E00086E008958BE508958FE4089586E60895E7
:1000F0008DE608958DE7089587E008958FE70895C8
:100100008FE6089589E408958FE308951F93CF93B0
:10011000DF93182FEB018F70DBDF8883812F8295AF
:100120008F70D6DF8983DF91CF911F910895C49A94
:1001300000008DEE92E00197F1F700C000000895F5
:1001400088B3897F88BB00008DEE92E00197F1F7BC
:1001500000C00000C49800008DEE92E00197F1F716
:1001600000C000000895BA9AC29898E0C19880FF34
:1001700002C0C29A01C0C2980000EDEEF2E03197D1
:10018000F1F700C00000C19A0000EDEEF2E03197F7
:10019000F1F700C000008695915041F70895C2988C
:1001A000BA9897E080E0C198B29B02C0806801C015
:1001B0008F770000EDEEF2E03197F1F700C000001C
:1001C000C19A0000EDEEF2E03197F1F700C00000B7
:1001D0008695915041F70895AADF80E8C4DF80E05A
:1001E000C2DFAEDF0895A3DF80E8BDDF80E8BBDFBC
:1001F000A7DF0895CF93DF93D82FC62F98DF8D2FD9
:10020000B2DF8C2FB0DF9CDFDF91CF910895682F94
:1002100084E8F0DF0895682F82E8ECDF0895682F06
:1002200086E8E8DF0895682F88E8E4DF0895682FFE
:100230008CE8E0DF0895CF93C82F79DF8C2F93DF10
:10024000AEDFC82F7DDF8C2FCF91089585E8F3DFD7
:10025000089583E8F0DF089587E8EDDF089589E8E1
:10026000EADF08958DE8E7DF089588B3896088BBE9
:1002700000000895C09A0000C39A0895C398C098DA
:1002800098E080FF02C0C39A01C0C3980000C09AE2
:100290000000C09886959150A1F7C098C398BB986C
:1002A000000086B3837009F0FFCFBB9AC09A0000AC
:1002B000C098000008950F931F93CF93DF93082FEA
:1002C000162FD42FC22FD1DF80E4D8DFD3DFCDDFCC
:1002D00080ECD4DF802FD2DF812FD0DF8D2FCEDFD7
:1002E0008C2FCCDFC7DFC1DF8FE8C8DFC3DFDF9132
:1002F000CF911F910F91089520E440E460E480E4E1
:10030000DADF08957894E4E7F0E08BE585838FE306
:1003100084838FED8DBF80E886BD000016BC88B950
:1003200047B337B327B381E090E0BC0102C0660F4A
:10033000771F4A95E2F702C0880F991F3A95E2F7B6
:10034000862B972B822B87BB87B3826187BB88B3B1
:1003500088BB81B381BB929A81B381BB939A8EB5DE
:100360008D608EBD82E49FE09BBD8ABD89B78064AD
:1003700089BF85B78A6085BF8BB7806C8BBFBCDFB8
:10038000FFCF67DF62E770E0C1DE60DF60E770E04B
:10039000BDDE62DF64E770E0B9DE61DF66E770E072
:1003A000B5DE60DF6AE770E0B1DE089580916D0030
:1003B00081111CC080916F00813041F4E0E7F0E0D2
:1003C00082818068828310926F0008C0E0E7F0E0CD
:1003D00082818F77828381E080936F00E0E7F0E095
:1003E000228143816081818166DF0895813049F4F3
:1003F000E4E7F0E0608160682281438181815BDF16
:100400000895823039F4E4E7F0E026814781648181
:10041000858151DF08950F9390916E00913021F402
:100420004ADF10926E0014C0011104C060E080E049
:1004300042DF0BC0013021F420E040E03CDF05C08A
:1004400020E040E060E080E036DF81E080936E00F5
:100450000F9108951F920F920FB60F9211240F93D0
:100460002F933F934F935F936F937F938F939F93BC
:10047000AF93BF93EF93FF9384DF80916C00811162
:1004800002C094DF3EC0813059F4E0E7F0E0228101
:100490002068228300E0438160818181BCDF31C01C
:1004A000823059F4E0E7F0E022812068228301E005
:1004B000438160818181AFDF24C0833059F4E4E758
:1004C000F0E060816068608300E022814381818187
:1004D000A2DF17C0843059F4E4E7F0E0608160687F
:1004E000608301E022814381818195DF0AC08530EC
:1004F00041F4E4E7F0E002E02681478164818581F0
:100500008ADFFF91EF91BF91AF919F918F917F9182
:100510006F915F914F913F912F910F910F900FBE6F
:100520000F901F901895CF93DF9399DEC82F9ADE16
:10053000D82F8C2FB6DDE82FF0E0E15AFF4F8081F5
:10054000C23019F4D37009F48DE1DF91CF91089591
:100550001F920F920FB60F9211242F933F934F9338
:100560005F936F937F938F939F93AF93BF93CF933B
:10057000EF93FF9310926D0036DE80916C008F5FD9
:10058000863018F480936C000EC010926C001092AC
:100590006D0022DE61DE85DDC82FC5DF8C1718F403
:1005A000C2DF67DD3CDEFF91EF91CF91BF91AF914C
:1005B0009F918F917F916F915F914F913F912F917B
:1005C0000F900FBE0F901F9018951F920F920FB6AD
:1005D0000F9211242F933F934F935F936F937F93C9
:1005E0008F939F93AF93BF93CF93EF93FF9380919C
:1005F0006C0081110CC080916D0090E001968330F9
:10060000910510F080E090E080936D00CFDE809146
:100610006C00813059F41ADE44DD90E00196883197
:10062000910510F080E090E024DDF1DD80916C0018
:10063000823059F40EDE35DD90E001968C33910561
:1006400010F080E090E015DDE6DD80916C008330F5
:1006500089F402DE26DDC82F66DF2C2F30E02F5F05
:100660003F4F90E08217930710F421E030E0822F93
:1006700000DDD5DD80916C00843059F4F0DD11DDB2
:1006800090E001968D30910510F081E090E0F1DC72
:10069000CADD80916C00853059F4E4DD02DD90E024
:1006A00001968436910510F080E090E0E2DCBFDD39
:1006B00068DEFF91EF91CF91BF91AF919F918F91A4
:1006C0007F916F915F914F913F912F910F900FBE4E
:0A06D0000F901F901895F894FFCFCB
:0C06DA001F1C1F1E1F1E1F1F1E1F1E1FA7
:00000001FF
