S01700004763634170706C69636174696F6E322E737265635A
S11300001EC04BC105C229C0A0C227C026C025C03E
S113001024C023C022C021C020C01FC01EC01DC0D8
S11300201CC01BC01AC019C018C063C04EC04FC04A
S113003050C051C052C053C054C055C056C0112402
S11300401FBECFEDCDBF20E0A0E6B0E001C01D9201
S1130050A037B207E1F753D1E1C2D2CF282F30E065
S1130060121613064CF480E02A5031090AF08F5F0F
S113007012161306CCF301C080E0332314F4265F78
S113008001C020E08295807F822B0895982F9F7075
S113009082958F709A3020F09A508F5F9A30E0F7F3
S11300A0882349F0282F2150F1F7282F220F220FFF
S11300B0820F880F980F892F089590E08A30910558
S11300C0B0F4FC01EB5EFF4F099486E008958BE5E4
S11300D008958FE4089586E608958DE608958DE7E2
S11300E0089587E008958FE708958FE6089589E4D9
S11300F008958FE308951F93CF93DF93182FEB0197
S11301008F70DBDF8883812F82958F70D6DF8983A0
S1130110DF91CF911F910895C49A0000089588B388
S1130120897F88BB0000C49800000895BA9AC298D9
S113013098E0C19880FF02C0C29A01C0C298000032
S1130140C19A000086959150A1F70895C298BA9873
S113015097E080E0C198B29B02C0806801C08F77AD
S11301600000C19A000086959150A1F70895D4DF4C
S113017080E8DCDF80E0DADFD2DF0895CDDF80E8DD
S1130180D5DF80E8D3DFCBDF0895CF93DF93D82F7B
S1130190C62FC2DF8D2FCADF8C2FC8DFC0DFDF91EF
S11301A0CF910895682F84E8F0DF0895682F82E8DE
S11301B0ECDF0895682F86E8E8DF0895682F88E863
S11301C0E4DF0895682F8CE8E0DF0895CF93C82F0B
S11301D0A3DF8C2FABDFBADFC82FA1DF8C2FCF9129
S11301E0089585E8F3DF089583E8F0DF089587E84C
S11301F0EDDF089589E8EADF08958DE8E7DF0895E3
S113020088B3896088BB00000895C09A0000C39A2F
S11302100895C398C09898E080FF02C0C39A01C0B3
S1130220C3980000C09A0000C09886959150A1F729
S1130230C098C398BB98000086B3837009F0FFCFC1
S1130240BB9AC09A0000C098000008950F931F93B2
S1130250CF93DF93082F162FD42FC22FD1DF80E442
S1130260D8DFD3DFCDDF80ECD4DF802FD2DF812F46
S1130270D0DF8D2FCEDF8C2FCCDFC7DFC1DF8FE83F
S1130280C8DFC3DFDF91CF911F910F91089520E460
S113029040E460E480E4DADF08951F920F920FB621
S11302A00F9211242F933F934F935F936F937F93F8
S11302B08F939F93AF93BF93EF93FF93109261003B
S11302C05DDF809160008F5F863018F4809360005A
S11302D005C0109260001092610049DFFF91EF9118
S11302E0BF91AF919F918F917F916F915F914F914A
S11302F03F912F910F900FBE0F901F9018957894F7
S1130300E8E6F0E08BE585838FE384838FED8DBF92
S113031080E886BD000016BC88B947B337B327B35D
S113032081E090E0BC0102C0660F771F4A95E2F7B6
S113033002C0880F991F3A95E2F7862B972B822BE0
S113034087BB87B3826187BB88B388BB81B381BB1A
S1130350929A81B381BB939A8EB58D608EBD82E4EF
S11303609FE09BBD8ABD89B7806489BF85B78A60D9
S113037085BF8BB7806C8BBF8ADFFFCF35DF66E626
S113038070E0B9DE2EDF64E670E0B5DE30DF68E6EB
S113039070E0B1DE2FDF6AE670E0ADDE2EDF6EE6E0
S11303A070E0A9DE08958091610081111CC08091E4
S11303B06300813041F4E4E6F0E082818068828366
S11303C01092630008C0E4E6F0E082818F778283B4
S11303D081E080936300E4E6F0E022814381608160
S11303E0818134DF0895813049F4E8E6F0E06081EA
S11303F0606822814381818129DF0895823039F444
S1130400E8E6F0E026814781648185811FDF089555
S11304101F920F920FB60F9211242F933F934F9375
S11304205F936F937F938F939F93AF93BF93EF9358
S1130430FF938091600081110CC08091610090E075
S113044001968330910510F080E090E08093610084
S1130450AADF80916000813059F4C3DE17DE90E09A
S113046001968831910510F080E090E0F7DD9ADE86
S113047080916000823059F4B7DE08DE90E0019686
S11304808C33910510F080E090E0E8DD8FDE809100
S11304906000833059F4ABDEF9DD90E001968032E0
S11304A0910510F081E090E0D9DD84DE8091600058
S11304B0843059F49FDEEADD90E001968D30910599
S11304C010F081E090E0CADD79DE80916000853033
S11304D059F493DEDBDD90E001968035910510F050
S11304E080E090E0BBDD6EDE49DFFF91EF91BF91CC
S11304F0AF919F918F917F916F915F914F913F91B8
S11305002F910F900FBE0F901F9018950F939091FD
S11305106200913021F49ADE1092620014C001113D
S113052004C060E080E092DE0BC0013021F420E0E2
S113053040E08CDE05C020E040E060E080E086DE44
S113054081E0809362000F9108951F920F920FB67D
S11305500F9211240F932F933F934F935F936F93B5
S11305607F938F939F93AF93BF93EF93FF9306DF94
S113057080916000811102C016DF3EC0813059F4C1
S1130580E4E6F0E022812068228300E04381608178
S11305908181BCDF31C0823059F4E4E6F0E022818D
S11305A02068228301E0438160818181AFDF24C020
S11305B0833059F4E8E6F0E060816068608300E02D
S11305C0228143818181A2DF17C0843059F4E8E697
S11305D0F0E060816068608301E022814381818171
S11305E095DF0AC0853041F4E8E6F0E002E02681B8
S11305F04781648185818ADFFF91EF91BF91AF913B
S11306009F918F917F916F915F914F913F912F9126
S11306100F910F900FBE0F901F901895F894FFCF75
S9030000FC
