:020000020000FC
:1000000007C111C010C0189576C01895189518959D
:1000100018951895189518951895CBC0189518959A
:100020001895189518951F9385D310B31C70183028
:1000300029F0143029F0103029F00EC00FD00CC078
:1000400048D00AC010B31C701C30E1F75394152D32
:10005000183008F0552482D21F9118951F930F93E2
:10006000829BFECFD3D144275395513019F15230A2
:1000700021F1533021F1543011F1553011F1563046
:1000800011F1573011F1583001F1593008F41EC008
:100090001CD21091630003D3012F1ED3011738F037
:1000A00066E87FD186D1EBD2612F83D17DD159D340
:1000B00055270CC00AD24AD309C007D207C010D2B4
:1000C00005C018D203C02BD201C01ED20F911F91C0
:1000D00018951F93839BFECF503011F084D209C036
:1000E0004395433008F401C0442714EE1DBD17EDBD
:1000F0001CBD1F9118951F932F933F93503099F07B
:100100005130A1F05230C9F05330F1F0543019F1B0
:10011000553041F1563069F1573069F1583091F15D
:100120005930B9F142C068D026D13FC020916B0050
:1001300030916C0011E0FFD138C0209169003091FE
:100140006A0012E0F8D131C020916D0030916E004C
:1001500011E0F1D12AC020916F003091700012E0BF
:10016000EAD123C0209173003091740012E0E3D1F2
:100170001CC096D01AC0209177003091780011E011
:10018000DAD113C02091790030917A0012E0D3D1F6
:100190000CC0F2D2FF27E9E62191319112E0CBD1D8
:1001A0002191308111E0C7D1F0D23F912F911F9161
:1001B00018951F936F9316B71D37D9F0239427FC1A
:1001C00044245F93540F5F91A1F41394112D1330C5
:1001D00081F411243FD164E448D141D13BD161EC99
:1001E00044D160916C0010E8612760936C003DD1B0
:1001F00036D16F911F91189509D1413021F04230CD
:1002000021F063D103C06CD101C074D14AD10895EB
:100210001FED1DBF10E818B910E816BD13E016BD9C
:100220001FEF1BBB18BB12BB0ABA07BA01BAC298B0
:10023000BA9AB89AB99ABB9ABC9A8A98929A8B98A9
:10024000939A1DE01EBD8DD297D211E419BF10E222
:1002500015BF10EC1BBF0024F0E0E2E01DE1112E01
:100260001A9411F00192FCCFE0E616E11A9511F014
:100270000192FCCFF0E0E5E71BE511931FE311933A
:1002800010E098D273D10193F19211E093D26ED124
:100290000193F08211E0512E7894B8D08895FECF6A
:1002A0001F932F933F9330FC37E330FE31E72FE36A
:1002B00012E041D13F912F911F9108951F932F93E9
:1002C0003F936F93302D563029F0573051F058300E
:1002D000B9F024C0132D22E080D1312E20D1442446
:1002E0001DC010E067D2DBD128E177D1C8D120E072
:1002F00055D23CD100937700F092780005D10EC022
:1003000011E058D2CCD12CE368D1B9D121E046D24A
:100310002DD100937900F0927A00F6D06F913F9141
:100320002F911F9108952F931F930F930BBECDD044
:1003300059E00CD22AD2789415E00FEFFBD120B30C
:100340002C702C3028F00A95C9F70FEF1A95B1F7E9
:10035000F89407D211D2B9D0552701E0402EEAD146
:1003600010B31C701C30D9F710EC1BBF78940F91A0
:100370001F912F9108952F931F9330FE0FC040FCC3
:100380000DC010E017D220916200121739F411E06D
:1003900011D220916100121301C0C5DF1F912F916E
:1003A0000895C39AC1D10895C498C598C398BCD183
:1003B00008950F936F93C598BD9A0027083058F49D
:1003C000C498B2D1669510F4C59A01C0C598C49A74
:1003D000ABD10395F3CF6F910F9108950F93C5980B
:1003E000BD9800276627073030F409D06695C49A77
:1003F0009BD10395F8CF03D0C49A0F910895C49868
:1004000093D1B5996068B59B6F7708951F930F934B
:10041000FF92BF93AF93DF93CF93B0E0A0E6D0E01D
:10042000C7E6BFDF6FEBC5DF1127173050F4D6DF0B
:100430006D931F93162F9AD00993F9921F911395DC
:10044000F4CFB2DFCF91DF91AF91BF91FF900F91C9
:100450001F910895C09AC19A0000C1980895C0984C
:10046000C1980000C09AC19A08950F936F93002716
:10047000083070F4C098669510F4C19A01C0C19814
:100480000000C09A00000395C0980000C198F0CF0A
:10049000B199FECFB99AC09A0000C0986F910F91A0
:1004A00008956F93D7DF60E4E0DFD9DFD3DF60EC3E
:1004B000DCDF662DDADF672FD8DF682FD6DF692F04
:1004C000D4DFCDDF4BD06F91089560906B007091B9
:1004D0006C0070688091690090916A00E2DF089575
:1004E00060906D0070916E0080916F00909170002F
:1004F000D8DF089560907500709176008091730048
:1005000090917400CEDF089560907700709178002C
:1005100070688091790090917A00C3DF08951F93ED
:1005200017E7612E70E48FE330FC97E330FE91E72C
:10053000B8DF1F9108953F932F931F93113019F047
:10054000123021F006C06226732703C0822793274A
:1005500000C0A7DF3F912F911F9108956F93652DE4
:10056000686878DF82DF7BDF6F9108951F93212F0A
:100570002F7008D0F22E212F207F229503D0022F3A
:100580001F910895203099F0213099F0223099F090
:10059000233099F0243099F0253099F0263099F0E5
:1005A000273099F0283099F0293099F014C02FE3C2
:1005B00013C026E011C02BE50FC02FE40DC026E6C6
:1005C0000BC02DE609C02DE707C027E005C02FE7C7
:1005D00003C02FE601C029E408951395121708F40B
:1005E00001C0132F08952F933F93AF93BF93EF93C1
:1005F000FF93302D513079F05230A9F05330D9F0BB
:10060000543021F1553059F1563089F1573079F194
:10061000583069F12DC0B0E0A2E628E164E8F2E0CC
:10062000E5E648D025C0B0E0A1E62CE362E8F2E0C0
:10063000E5E640D01DC0B0E0A3E631E04DD0139513
:10064000212F66E8F2E0E0E735D012C0B0E0A4E682
:1006500031E02DE068E8F2E0E0E72CD009C0B0E03E
:10066000A6E624E66CE8F2E0EAE724D001C026DE44
:10067000FF91EF91BF91AF913F912F9108952F93EB
:100680000F93212F00272A5012F00395FCCF265FED
:100690000295102F2F70122B3F910F9108952F93D9
:1006A000212F207F22951F702A9512F0165FFCCF14
:1006B0002F9108951F931C91F2DF1395121708F4E0
:1006C00001C0132F6EDE75DEDADF612F72DE6CDEA5
:1006D0009DDE09951F910895FF93EF93DF93CF93CC
:1006E000F7E0E0EC10916400DADF1A95D0E0C12F5A
:1006F000EC0FFD1F149105D0CF91DF91EF91FF9189
:1007000008950F93012F10916400123051F410914D
:100710006600103031F0C3DF11FD03C010FD01C0D1
:100720000DE1102F0F9108951F931AE01A95F1F71C
:100730001F9108951F930F9310E50FEF0A95F1F79E
:100740000FEF1A95D9F70F911F9108951F9311E09C
:100750001BBD17EE1ABD11E01DBD1DED1CBD1F9187
:1007600008951F9314EE1BBD11EE1ABD14EE1DBDAE
:1007700017ED1CBD1F9108951F9312E010BF15E0E7
:1007800013BF19EE16BF1F9108951F9312E410BFF7
:1007900012E013BF1DE716BF1F9108951F932F93FB
:1007A000E199FCCF0CBA2EBB1DBBE29AE19A2F91C6
:1007B0001F910895E199FECF1EBBE09A1DB30895E5
:0C07C0001F1C1F1E1F1E1F1F1E1F1E1FC0
:00000001FF
