:020000020000FC
:10000000C1C011C038C0189554C0189518951895DE
:100010001895189518951895189599C018951895CC
:100020001895189518951F9310E010936300109180
:1000300064001395113079F0123089F0133091F08B
:10004000143091F0153091F0163008F410C040D102
:10005000B3D110E00CC043D1AFD198D108C0ACD11E
:1000600095D105C0B3D103C0B1D101C0BAD11093AD
:1000700064001F9118951F9310916400103011F0C7
:1000800010D215C010E01EBD91D1109163001395E0
:10009000133008F401C010E0109363001DE01EBD92
:1000A0001FE01DBD12E41CBD1CE310936B001F91EB
:1000B00018951F932F933F9310916400103051F0C7
:1000C0001130F9F0123021F1133049F1143071F18F
:1000D000153099F110916B0013951C3308F40DC085
:1000E000B1D010916300113021F0123021F064D1B1
:1000F00003C06CD101C075D110E010936B00F6D035
:1001000022C020916C0030916D0011E074D11BC0B1
:1001100020916E0030916F0012E06DD114C02091DB
:1001200070003091710011E066D10DC02091720015
:100130003091730012E05FD106C0209176003091BB
:10014000770013E058D13F912F911F9118951F937D
:100150000F931091630000916400012B71F41091D2
:100160006A0013951F3008F408C010916200103027
:1001700011F014D101C00AD110E010936A000F9160
:100180001F9118951FED1DBF10E816BD10E016BD9C
:1001900010E818B9B89ABB9AB89AB99A8A98929AFC
:1001A0008B98939A1DE01EBD1FE01BBD12E41ABD83
:1001B00012E010BF15E013BF1AEF16BF11E419BF0C
:1001C0001AE015BF10EC1BBF7894F0D01CE310931D
:1001D0006B001BE5109374001FE310937500FFCFB5
:1001E000C09A00000895C198C2980000C09800000D
:1001F00008951F938F93BA9AC29810E0183058F45C
:10020000C198869510F4C29A01C0C2980000C19AA4
:1002100000001395F3CF8F911F9108951F93C298FB
:10022000BA9810E080E0173058F4C198B29980680D
:10023000B29B8F7786950000C19A00001395F3CF8B
:100240001F9108951F93FF93EF93DF93CF93BF9375
:10025000AF9383E8B0E0A5E6D0E0CEE6F0E0EFE6CD
:100260002DD085E8B0E0A6E6D0E0CCE6F0E0EDE603
:1002700025D087E8B0E0A7E6D0E0C0E7F0E0E1E70E
:100280001DD089E8B0E0A8E6D0E0C2E7F0E0E3E7FF
:1002900015D08DE8B0E0A9E6D0E0C6E7F0E0E7E7EA
:1002A0000DD0AF91BF91CF91DF91EF91FF911F9151
:1002B000089596DF9EDFB2DF96DF0895FADF8C9314
:1002C000B7D01091600018831091610010830895D9
:1002D00087DF80E88EDF80E08CDF85DF089580DFB8
:1002E00080E887DF80E885DF7EDF08950F931F9326
:1002F0002F9343D000E416D044D03FD000EC12D06E
:10030000042F10D0052F0ED0062F0CD0072F0AD0A7
:1003100038D033D00FE806D034D000002F911F9191
:100320000F91089518E0C098202F2170213011F40A
:10033000C39A02C0C39800C0000000000000000083
:1003400000000695C09A00000000000000000000B8
:100350001A95103041F7C09800000000000000001E
:100360000000BB98B399FECFBB9AC09A0000000072
:10037000000000000000C0980895C09AC39AC39876
:100380000895C098C398C09AC39A08951F9311E026
:10039000109362007068AADF1F9108951F9310E008
:1003A000109362007F77A2DF1F91089540E450E42C
:1003B00060E470E49BDF089540916C0050916D0003
:1003C00060916E0070916F0091DF08954091700010
:1003D000509171005068609172007091730086DFD7
:1003E000089540917400509175006091760070916D
:1003F00077007CDF08951F932F933F93113029F0EE
:10040000123031F0133039F00EC0422753270BC0A1
:100410006227732708C0109174004127109175005E
:1004200051276227732762DF3F912F911F91089513
:100430001F93182F1F700AD010936100182F107788
:10044000129504D0109360001F910895103099F018
:10045000113099F0123099F0133099F0143099F06E
:10046000153099F0163099F0173099F0183099F04E
:10047000193099F014C01FE313C016E011C01BE53A
:100480000FC01FE40DC016E60BC01DE609C01DE736
:1004900007C017E005C01FE703C01FE601C019E44D
:1004A00008951F932F933F9310916400113049F0EA
:1004B000123089F01330C9F0143001F1153039F1E0
:1004C0002DC0B0E0A6E630E028E184E8F1E0ECEDF4
:1004D00044D05CDF23C0B0E0A5E630E02CE382E846
:1004E000F1E0ECED3AD052DF19C0B0E0A7E631E020
:1004F00020E286E8F1E0E6EE30D010C0B0E0A8E6F9
:1005000031E02DE088E8F1E0E6EE27D007C0B0E06A
:10051000A9E626E48CE8F1E0E1EF1FD03F912F91AE
:100520001F9108952F933F93282F30E02A5012F007
:100530003395FCCF265F3295832F2F70822B3F910E
:100540002F9108952F93212F207F22951F702A9598
:1005500012F0165FFCCF2F9108951F931C91F2DFCC
:100560001395121708F401C0132F3ADE42DE812FD3
:0E057000D9DF3FDE38DE66DE09951F91089563
:00000001FF
