:020000020000FC
:10000000E1C011C05AC0189573C01895189518957D
:1000100018951895189518951895B0C018951895B5
:100020001895189518951F930F93E8D2829BFDCFD2
:1000300039D110E0109361001091620013951130D6
:1000400011F1123069F1133071F1143071F1153082
:1000500071F1163008F42CC067D1A8D0C7D1109127
:10006000650089D2012FA4D2011738F086E8E6D0C6
:10007000EDD0812F70D2EAD0E4D014EE1BBD11EE8A
:100080001ABD10E015C099D056D1B0D199D101E078
:100090000BBD07EE0ABD01E00DBD0DED0CBD08C0A6
:1000A000A5D18ED105C0ACD103C0AAD101C0B2D1B7
:1000B000109362000F911F9118951F939FD2839BFD
:1000C000FDCF7BD010916200103011F001D20EC034
:1000D000109161001395133008F402C067D010E04E
:1000E0001093610014EE1DBD17ED1CBD1F911895F6
:1000F0001F932F933F9310916200103051F01130F5
:10010000B9F01230E1F0133009F1143031F115304B
:1001100059F1C8D010916100113021F0123021F056
:1001200065D103C06DD101C075D110E00BD122C0E3
:10013000209168003091690011E076D11BC02091B8
:100140006A0030916B0012E06FD114C020916C00F6
:1001500030916D0011E068D10DC020916E0030919A
:100160006F0012E061D106C02091720030917300DF
:1001700013E05AD13F912F911F9118951F938F93A0
:100180009395933081F4992710D184E4F2D012D161
:100190000CD181ECEED08091690010E8812780932A
:1001A0006900E7D007D18F911F9118951F9312E036
:1001B00010BF15E013BF1F9108951F9310E013BFE8
:1001C0001F9108951FED1DBF10E818B910E816BD66
:1001D00013E016BD1FEF1BBB18BB12BB11271ABBC8
:1001E00017BB11BBB89ABB9ABC9AB99A8A988B98DC
:1001F000939A1DE01EBD14EE1BBD11EE1ABDD6DF95
:1002000019EE16BF11E419BF10E015BF10EC1BBFAB
:100210001127912F109362001093610078941BE5D1
:10022000109370001FE31093710062DF61DFFFCF56
:100230001F1C1F1E1F1E1F1F1E1F1E1FC49AD8D14A
:100240000895C198C298C498D3D108951F938F93ED
:10025000BA9AC29810E0183058F4C198C9D186955E
:1002600010F4C29A01C0C298C19AC2D11395F3CFBB
:100270008F911F9108951F93C298BA9810E080E063
:10028000173030F408D08695C19AB2D11395F8CFC3
:1002900002D01F910895C198ABD1B2998068B29BEA
:1002A0008F7708951F93FF93EF93DF93CF93BF93BF
:1002B000AF9383E8B0E0A3E6D0E0CAE6F0E0EBE677
:1002C0002DD085E8B0E0A4E6D0E0C8E6F0E0E9E6AD
:1002D00025D087E8B0E0A5E6D0E0CCE6F0E0EDE69A
:1002E0001DD089E8B0E0A6E6D0E0CEE6F0E0EFE68B
:1002F00015D08DE8B0E0A7E6D0E0C2E7F0E0E3E794
:100300000DD0AF91BF91CF91DF91EF91FF911F91F0
:10031000089594DF9BDFAFDF94DF0895FADF8C93BD
:10032000A0D00883F082089589DF80E88FDF80E025
:100330008DDF87DF089582DF80E888DF80E886DF51
:1003400080DF08958F9331D080E413D033D02DD047
:1003500080EC0FD0842F0DD0852F0BD0862F09D0A5
:10036000872F07D027D021D08FE803D023D08F91BB
:1003700008951F938F9310E0183070F4C0988695FD
:1003800010F4C39A01C0C3980000C09A00001395EE
:10039000C0980000C398F0CFB399FECFBB9AC09A23
:1003A0000000C0988F911F910895C09AC39A0000D1
:1003B000C3980895C098C3980000C09AC39A08953E
:1003C0001F9311E0109360005068BCDF1F910895E7
:1003D0001F9310E0109360005F77B4DF1F910895C2
:1003E00040E450E460E470E4ADDF089540916800BB
:1003F0005091690060916A0070916B00A3DF0895CD
:1004000040916C0050916D0060916E0070916F0092
:1004100099DF0895409170005091710060917200D1
:10042000709173008FDF08951F932F933F931130C6
:1004300029F0123031F0133039F00EC04227532723
:100440000BC06227732708C01091700041271091DC
:10045000710051276227732775DF3F912F911F91FC
:1004600008951F93182F1F7008D0F12E182F107F9A
:10047000129503D0012F1F910895103099F011307B
:1004800099F0123099F0133099F0143099F015303A
:1004900099F0163099F0173099F0183099F019301A
:1004A00099F014C01FE313C016E011C01BE50FC084
:1004B0001FE40DC016E60BC01DE609C01DE707C00E
:1004C00017E005C01FE703C01FE601C019E4089547
:1004D0001F932F933F9310916200113049F0123017
:1004E00089F01330C9F0143011F1153049F12FC0E3
:1004F000B0E0A4E630E028E184E8F1E0E6EF46D0A1
:100500005FDF25C0B0E0A3E630E02CE382E8F1E055
:10051000E6EF3CD055DF1BC0B0E0A5E631E048D0A7
:100520001395212F86E8F2E0E0E030D010C0B0E073
:10053000A6E631E02DE088E8F2E0E0E027D007C051
:10054000B0E0A7E624E68CE8F2E0EAE01FD03F91B5
:100550002F911F9108952F933F93282F30E02A5019
:1005600012F03395FCCF265F3295832F2F70822BAC
:100570003F912F9108952F93212F207F22951F7057
:100580002A9512F0165FFCCF2F9108951F931C91AE
:10059000F2DF1395121708F401C0132F4FDE56DE59
:1005A000812FD9DF53DE4DDE7DDE09951F91089541
:1005B000F2E0E0E310916600DEDF1A95D0E0C12F93
:1005C000EC0FFD1F149101D008950F93012F10918E
:1005D0006600123051F410916700103031F0CBDF1B
:1005E00011FD03C010FD01C00DE1102F0F91089502
:1005F0001F931AE01A95F1F71F9108951F930F9317
:1006000018EC0FEF0A95F1F70FEF1A95D9F70F9144
:040610001F91089599
:00000001FF
