:020000020000FC
:1000000013C111C010C0189582C018951895189585
:1000100018951895189518951895D4C01895189591
:100020001895189518951F93ABD310B31C70183002
:1000300029F0143029F0103029F00FC010D00DC075
:100040004ED00BC010B31C701C30E1F73394132D4D
:10005000183008F03324B6D200C01F9118951F93B2
:100060000F93829BFECFE7D1009260001091610058
:100070001395113019F1123021F1133021F11430A0
:1000800011F1153011F1163011F1173011F118304E
:1000900001F1193008F41EC051D2109165002DD322
:1000A000012F48D3011738F086E891D198D1812FDC
:1000B00014D395D18FD185D311270CC03FD276D3DD
:1000C00009C03CD207C045D205C04DD203C060D2A2
:1000D00001C053D2109361000F911F9118951F9387
:1000E000839BFECF10916100103011F0B0D20DC093
:1000F000109160001395133008F401C0112710937C
:10010000600014EE1DBD17ED1CBD1F91189544D362
:1001100010916100103099F01130A1F01230C9F047
:100120001330F1F0143019F1153041F1163069F146
:10013000173069F1183091F11930B9F141C066D02A
:100140002ED13EC020916A0030916B0011E02DD27B
:1001500037C020916C0030916D0012E026D230C083
:1001600020916E0030916F0011E01FD229C02091C4
:1001700070003091710012E018D222C020917400FA
:100180003091750012E011D21BC098D019C0209197
:1001900076003091770011E008D212C020917800EB
:1001A0003091790012E001D20BC016D3EAE621911A
:1001B000319111E0FAD12191308112E0F6D115D3BD
:1001C000F0D218951F938F9316B71D37E1F0139453
:1001D00017FC22241091610080916000180F99F49F
:1001E0009395933081F4992798D184E47AD19AD168
:1001F00094D181EC76D180916B0010E881278093B7
:100200006B006FD18FD18F911F91189514D11091E0
:100210006000113021F0123021F090D103C099D14B
:1002200001C0A1D14AD108951FED1DBF10E818B932
:1002300010E816BD13E016BD1FEF1BBB18BB12BBA9
:100240000ABA07BA01BAC298BA9AB89AB99ABB9AC6
:10025000BC9A8A98929A8B98939A1DE01EBDB1D24F
:10026000BBD211E419BF10E215BF10EC1BBF1FE198
:10027000F0E0E0E600E01A9511F00193FCCF992739
:100280000024112422241FE310937600109377009A
:10029000109378001093790011E0312E1BE5109334
:1002A00072001FE3109373007894C5D08895FECF39
:1002B0001F1C1F1E1F1E1F1F1E1F1E1F6DD22091E1
:1002C000620020FD37E320FF31E72FE312E06DD11C
:1002D00068D2089561D28F9310916100163029F091
:1002E000173069F01830E1F02BC01091620030E057
:1002F00022E0A7D1109362004BD1222421C010919B
:100300006800FBD130E028E19CD1812FE6D18093B9
:10031000680060D100937600F09277002ED110C073
:1003200010916900EAD130E02CE38BD1812FD5D137
:10033000809369004FD100937800F09279001DD12D
:100340008F912FD208952F931F930F9310E01BBF0F
:10035000F5D019E01093610029D247D2789415E0C6
:100360000FEF0ED220B32C702C3028F00A95C9F76D
:100370000FEF1A95B1F7F89424D22ED2DFD0009265
:10038000610001E0202EFCD110B31C701C30D9F7A5
:1003900010EC1BBF78940F911F912F9108952F930C
:1003A0001F931091620010FF0FC020FC0DC0109130
:1003B000640020916800121739F4109163002091B5
:1003C0006900121301C0BFDF1F912F910895C39AD6
:1003D000D1D10895C498C598C398CCD108951F93DE
:1003E0008F93BD9AC5981127183058F4C498C2D17C
:1003F000869510F4C59A01C0C598C49ABBD11395CF
:10040000F3CF8F911F9108951F93C598BD98112721
:100410008827173030F408D08695C49AABD113954D
:10042000F8CF02D01F910895C498A4D1B5998068DF
:10043000B59B8F7708951F93FF93EF93DF93CF932F
:10044000BF93AF9383E8B0E0A3E6D0E0CCE6F0E062
:10045000EDE62DD085E8B0E0A4E6D0E0CAE6F0E015
:10046000EBE625D087E8B0E0A5E6D0E0CEE6F0E008
:10047000EFE61DD089E8B0E0A6E6D0E0C0E7F0E006
:10048000E1E715D08DE8B0E0A7E6D0E0C4E7F0E002
:10049000E5E70DD0AF91BF91CF91DF91EF91FF9143
:1004A0001F91089594DF9BDFAFDF94DF0895FADF9B
:1004B0008C9390D00883F08208958F932ED080E49F
:1004C00010D030D02AD080EC0CD0842F0AD0852FC9
:1004D00008D0862F06D0872F04D024D073D08F91D8
:1004E00008951F938F931127183070F4C098869544
:1004F00010F4C19A01C0C1980000C09A0000139581
:10050000C0980000C198F0CFB199FECFB99AC09AB7
:100510000000C0988F911F910895C09AC19A000061
:10052000C1980895C098C1980000C09AC19A0895D2
:1005300040E450E460E470E4C0DF089540916A0054
:1005400050916B00506860916C0070916D00B5DF48
:10055000089540916E0050916F006091700070910D
:100560007100ABDF0895409172005091730060916B
:10057000740070917500A1DF08954091760050914C
:1005800077005068609178007091790096DF089547
:100590001F9347E750E46FE31091620010FD77E38B
:1005A00010FF71E78ADF1F910895113019F01230A2
:1005B00021F006C04227532703C06227732700C0DB
:1005C0007CDF08958F93832D8868A7DF8ADFAADFF9
:1005D0008F9108951F93182F1F7008D0F12E182F98
:1005E000107F129503D0012F1F910895103099F0BC
:1005F000113099F0123099F0133099F0143099F0CD
:10060000153099F0163099F0173099F0183099F0AC
:10061000193099F014C01FE313C016E011C01BE598
:100620000FC01FE40DC016E60BC01DE609C01DE794
:1006300007C017E005C01FE703C01FE601C019E4AB
:1006400008951395121708F401C0132F0895A4D02C
:1006500010916100113079F01230B1F01330E9F0EF
:10066000143031F1153069F11630A1F1173091F1E4
:10067000183081F130C0B0E0A4E630E028E184E831
:10068000F2E0EEE945D027C0B0E0A3E630E02CE38D
:1006900082E8F2E0EEE93CD01EC0B0E0A5E631E031
:1006A00049D01395212F86E8F2E0E9EA31D013C052
:1006B000B0E0A6E631E02DE088E8F2E0E9EA28D0F3
:1006C0000AC0B0E0A7E630E024E68CE8F2E0E3EB15
:1006D0001FD001C0FFDD65D008952F933F93282FD1
:1006E00033272A5012F03395FCCF265F3295832FA3
:1006F0002F70822B3F912F9108952F93212F207FD0
:1007000022951F702A9512F0165FFCCF2F91089545
:100710001F931C91F2DF1395121708F401C0132FD9
:1007200056DE5DDE812FD9DF5ADE54DE84DE099588
:100730001F910895F2E0E0EB10916600DEDF1A955C
:10074000D0E0C12FEC0FFD1F149101D008950F933D
:10075000012F10916600123051F410916700103093
:1007600031F0CBDF11FD03C010FD01C00DE1102FF2
:100770000F9108951F931AE01A95F1F71F910895AC
:100780001F930F9310E50FEF0A95F1F70FEF1A95EE
:10079000D9F70F911F910895CAE7199329933883C8
:1007A0000895CAE719912991388108951F9311E09E
:1007B0001BBD17EE1ABD11E01DBD1DED1CBD1F9127
:1007C00008951F9314EE1BBD11EE1ABD14EE1DBD4E
:1007D00017ED1CBD1F9108951F9312E010BF15E087
:1007E00013BF19EE16BF1F9108951F9312E410BF97
:0C07F00012E013BF1DE716BF1F91089513
:00000001FF
