:020000020000FC
:10000000FDC011C010C018958FC01895189518958F
:1000100018951895189518951895CCC01895189599
:100020001895189518951F930ED310B31C7018309F
:1000300029F0143029F0103029F011C012D00FC06F
:1000400059D00DC010B31C701C30E1F71091740032
:100050001395183008F01127109374001ED21F91C9
:1000600018951F930F93829BFECF3BD110E0109306
:100070006100109162001395113011F1123069F195
:10008000133071F1143071F1153071F1163008F43C
:100090002CC069D1A7D0C6D11091650091D2012F93
:1000A000ACD2011738F086E8E8D0EFD0812F78D2B3
:1000B000ECD0E6D014EE1BBD11EE1ABD10E015C059
:1000C00098D058D1AFD198D101E00BBD07EE0ABD51
:1000D00001E00DBD0DED0CBD08C0A4D18DD105C052
:1000E000ABD103C0A9D101C0B1D1109362000F916F
:1000F0001F9118951F93839BFECF7BD010916200B8
:10010000103011F00AD20EC0109161001395133017
:1001100008F402C067D010E01093610014EE1DBD1A
:1001200017ED1CBD1F9118951F932F933F931091AE
:100130006200103051F01130B9F01230E1F013309C
:1001400009F1143031F1153059F1CBD01091610023
:10015000113021F0123021F065D103C06DD101C002
:1001600075D110E00ED122C0209168003091690055
:1001700011E076D11BC020916A0030916B0012E033
:100180006FD114C020916C0030916D0011E068D1E6
:100190000DC020916E0030916F0012E061D106C059
:1001A000209172003091730013E05AD13F912F914A
:1001B0001F9118951F938F939395933081F49927EE
:1001C00010D184E4F2D012D10CD181ECEED0809128
:1001D000690010E8812780936900E7D007D18F91EB
:1001E0001F9118951F9312E010BF15E013BF1F91C8
:1001F00008951F9310E013BF1F9108951FED1DBFB9
:1002000010E818B910E816BD13E016BD1FEF1BBBB0
:1002100018BB12BB11271ABB17BB11BBB89ABB9AEC
:10022000BC9AB99A8A98929A8B98939A1DE01EBDAF
:1002300014EE1BBD11EE1ABDD5DF19EE16BF11E489
:1002400019BF10E215BF10EC1BBF992790936200F5
:10025000909361009093740078941BE51093700064
:100260001FE31093710060DF5FDF8895FECF1F1CD6
:100270001F1E1F1E1F1F1E1F1E1FC49ADED10895A2
:10028000C198C298C498D9D108951F938F93BA9AF0
:10029000C29810E0183058F4C198CFD1869510F468
:1002A000C29A01C0C298C19AC8D11395F3CF8F9159
:1002B0001F9108951F93C298BA9810E080E01730FC
:1002C00030F408D08695C19AB8D11395F8CF02D0F2
:1002D0001F910895C198B1D1B2998068B29B8F7770
:1002E00008951F93FF93EF93DF93CF93BF93AF9343
:1002F00083E8B0E0A3E6D0E0CAE6F0E0EBE62DD07C
:1003000085E8B0E0A4E6D0E0C8E6F0E0E9E625D074
:1003100087E8B0E0A5E6D0E0CCE6F0E0EDE61DD061
:1003200089E8B0E0A6E6D0E0CEE6F0E0EFE615D052
:100330008DE8B0E0A7E6D0E0C2E7F0E0E3E70DD05B
:10034000AF91BF91CF91DF91EF91FF911F910895F0
:1003500094DF9BDFAFDF94DF0895FADF8C93A6D0A4
:100360000883F082089589DF80E88FDF80E08DDFE9
:1003700087DF089582DF80E888DF80E886DF80DF1E
:1003800008958F932ED080E410D030D02AD080EC06
:100390000CD0842F0AD0852F08D0862F06D0872F27
:1003A00004D024D07AD08F9108951F938F9310E0BA
:1003B000183070F4C098869510F4C39A01C0C398A1
:1003C0000000C09A00001395C0980000C398F0CFB9
:1003D000B399FECFBB9AC09A0000C0988F911F912D
:1003E0000895C09AC39A0000C3980895C098C3980E
:1003F0000000C09AC39A08951F9311E01093600003
:100400005068BFDF1F9108951F9310E010936000A4
:100410005F77B7DF1F91089540E450E460E470E433
:10042000B0DF0895409168005091690060916A00C2
:1004300070916B00A6DF089540916C0050916D00A3
:1004400060916E0070916F009CDF08954091700084
:1004500050917100609172007091730092DF089565
:100460001F932F933F93113029F0123031F0133046
:1004700039F00EC0422753270BC06227732708C0EC
:100480001091700041271091710051276227732746
:1004900078DF3F912F911F9108958F938091740081
:1004A00088689FDF82DFA2DF8F9108951F93182F46
:1004B0001F7008D0F12E182F107F129503D0012F36
:1004C0001F910895103099F0113099F0123099F081
:1004D000133099F0143099F0153099F0163099F0E6
:1004E000173099F0183099F0193099F014C01FE3C3
:1004F00013C016E011C01BE50FC01FE40DC016E6C7
:100500000BC01DE609C01DE707C017E005C01FE7C7
:1005100003C01FE601C019E408951F932F933F9372
:1005200010916200113049F0123089F01330C9F097
:10053000143011F1153049F12FC0B0E0A4E630E0DD
:1005400028E184E8F2E0E2E146D056DF25C0B0E0E1
:10055000A3E630E02CE382E8F2E0E2E13CD04CDFBD
:100560001BC0B0E0A5E631E048D01395212F86E806
:10057000F2E0ECE130D010C0B0E0A6E631E02DE0D2
:1005800088E8F2E0ECE127D007C0B0E0A7E624E677
:100590008CE8F2E0E6E21FD03F912F911F91089581
:1005A0002F933F93282F30E02A5012F03395FCCF41
:1005B000265F3295832F2F70822B3F912F910895C4
:1005C0002F93212F207F22951F702A9512F0165FFE
:1005D000FCCF2F9108951F931C91F2DF13951217F2
:1005E00008F401C0132F49DE50DE812FD9DF4DDE24
:1005F00047DE77DE09951F910895F2E0EEE610914F
:100600006600DEDF1A95D0E0C12FEC0FFD1F1491BC
:1006100001D008950F93012F10916600123051F40C
:1006200010916700103031F0CBDF11FD03C010FDD9
:1006300001C00DE1102F0F9108951F931AE01A9534
:10064000F1F71F9108951F930F9310E50FEF0A958F
:0E065000F1F70FEF1A95D9F70F911F9108954A
:00000001FF
