:020000020000FC
:10000000DCC013C050C0189561C01895189518959C
:100010001895189518951895189518951895189578
:10002000189518951895189518951F930F93B5D393
:10003000829932C0B7D144275395513011F15230D3
:1000400001F1533001F15430F1F05530F1F05630F8
:10005000F1F05730F1F05830E1F05930E1F007D2CB
:100060001091630030D3012F4BD3011738F066E8AD
:1000700064D16BD118D3612F68D162D169D3552770
:100080000BC0F5D109C009D207C011D205C024D2D6
:1000900003C017D201C02ED211E01DBD1DED1CBD45
:1000A0000F911F9118951F9378D383990DC05030ED
:1000B00011F09CD209C04395433008F401C0442795
:1000C00011E01DBD1DED1CBD1F9118951F932F93B1
:1000D0003F9368D15030A9F05130A9F05230D1F09F
:1000E0005330F9F0543021F1553049F1563071F167
:1000F000573071F1583099F15930C1F15A30E9F166
:1001000047C04DD045C020916B0030916C0011E08C
:10011000F8D13EC02091690030916A0012E0F1D11F
:1001200037C020916D0030916E0011E0EAD130C0EF
:1001300020916F003091700012E0E3D129C020912E
:1001400073003091740012E0DCD122C094D020C042
:10015000209178003091790011E0D3D119C020911D
:100160007A0030917B0012E0CCD112C020910000C7
:100170003091750012E0C5D10BC0FF27E9E621914F
:10018000319112E0BED12191308111E0BAD1E6D295
:100190005A3009F0B6D03F912F911F9118954130F8
:1001A00051F0423031F0122D60E81627212E5FD138
:1001B00003C073D101C066D108951FED1DBF10E8C3
:1001C00018B910E816BD13E016BD1FEF1BBB18BB16
:1001D00012BB0ABA07BA01BAC298BA9AB89AB99ABF
:1001E000BD9ABB9A8A988B981DE01EBD11E01BBD7D
:1001F00017EE1ABDADD211E419BF1AE015BF10EC0D
:100200001BBF0024F0E0E2E01DE1112E1A9411F072
:100210000192FCCFE0E61CE11A9511F00192FCCFAF
:10022000F0E0E6E71BE511931FE3119311E0ABD279
:10023000A0D10193F19212E0A6D29BD10193F0825A
:1002400013E0A1D2212FA1D120937500612F08D1F5
:100250006BD1A8D0A7D06EE870D077D060E075D011
:100260006FD060E86AD071D0609160006F776DD018
:1002700067D07894FFCF1F932F933F9310E083D2E2
:1002800010FD37E310FF31E72FE312E03AD13F9141
:100290002F911F9108951F932F933F936F93302DAC
:1002A000563029F0573059F05830C1F025C010E0D1
:1002B0006AD222E095D120E05AD20ED11DC011E0C1
:1002C00062D201D228E18CD1EED121E050D251D1BD
:1002D00000937800F0927900F4D00EC012E053D26F
:1002E000F2D12CE37DD1DFD122E041D242D1009383
:1002F0007A00F0927B00E5D06F913F912F911F9192
:1003000008952F931F9310E03ED210FF13C011E009
:100310003AD220916200121769F412E034D220918F
:100320006100121739F420916000203019F49FD039
:100330005AE014D21F912F910895C59A2AD2089598
:10034000C398C498C59825D208950F936F93C49805
:10035000BC9A0027083058F4C3981BD2669510F455
:10036000C49A01C0C498C39A14D20395F3CF6F9175
:100370000F9108950F93C498BC9800276627073003
:1003800030F409D06695C39A04D20395F8CF03D010
:10039000C39A0F910895C398FCD1B4996068B49B37
:1003A0006F7708951F930F93FF92BF93AF93DF93DF
:1003B000CF93B0E0A0E6D0E0C7E6BFDF6FEBC5DFCC
:1003C0001127173050F4D6DF6D931F93162FD1D01D
:1003D0000993F9921F911395F4CFB2DFCF91DF917A
:1003E000AF91BF91FF900F911F910895C09AC19A4C
:1003F0000000C1980895C098C1980000C09AC19AA1
:1004000008950F936F930027083070F4C098669595
:1004100010F4C19A01C0C1980000C09A0000039571
:10042000C0980000C198F0CFB199FECFB99AC09A98
:100430000000C0986F910F9108956F93D7DF60E42B
:10044000E0DFD9DFD3DF60ECDCDF662DDADF672F9A
:10045000D8DF682FD6DF692FD4DFCDDF6F91089505
:100460006F936868C3DFCDDFC6DF6F91089560903A
:100470006B0070916C0072298091690090916A0004
:10048000DCDF08956090690070916A007068809167
:10049000670090916800D1DF089560906D007091C1
:1004A0006E0080916F0090917000C7DF089560909A
:1004B0007600709177008091730090917400BDDF99
:1004C00008956090780070917900706880917A004A
:1004D00090917B00B2DF08951F9317E7612E70E4BF
:1004E0008FE310E050D110FD97E310FF91E7A5DFF7
:1004F0001F910895602C702D802D909175009DDFC7
:1005000008953F932F931F93113019F0123021F06B
:1005100006C06226732703C08227932700C08DDFA1
:100520003F912F911F91089511E0612E702D802D24
:10053000902D19D0712F17D0812F15D017D013E01F
:1005400015D017E013D01FE011D019E0812F0BD088
:10055000712F09D0612E07D019E1612E04D019E363
:10056000612E01D0089569DF18D10895912FFBDF26
:1005700008951F93212F2F7008D0F22E212F207F56
:10058000229503D0022F1F910895203099F0213039
:1005900099F0223099F0233099F0243099F02530E9
:1005A00099F0263099F0273099F0283099F02930C9
:1005B00099F014C02FE313C026E011C02BE50FC043
:1005C0002FE40DC026E60BC02DE609C02DE707C0BD
:1005D00027E005C02FE703C02FE601C029E40895F6
:1005E0001395121708F401C0132F08952F933F930A
:1005F000AF93BF93EF93FF93302D513089F052307A
:10060000B9F05330E9F0543031F1553069F15630DA
:1006100099F1573089F1583079F1593079F13CC06E
:10062000B0E0A2E628E164E8F2E0E7E357D034C0A6
:10063000B0E0A1E62CE362E8F2E0E7E34FD02CC0A3
:10064000B0E0A3E631E05CD01395212F66E8F2E03C
:10065000EDE444D021C0B0E0A4E631E02DE068E84C
:10066000F2E0EDE43BD018C0B0E0A6E624E66CE88A
:10067000F2E0E7E533D010C00EDE0EC013E083D009
:1006800030E028E0ADDF23E072D0212F7EDF209321
:100690007500612FE5DE2EDFFF91EF91BF91AF91E5
:1006A0003F912F9108952F930F93212F00272A50C8
:1006B00012F00395FCCF265F0295102F2F70122B9E
:1006C0003F910F9108952F93212F207F22951F7026
:1006D0002A9512F0165FFCCF2F9108951F931C915D
:1006E000F2DF1395121708F401C0132F26DE2DDE5A
:1006F000DADF612F2ADE24DE55DE09951F91089589
:10070000FF93EF93DF93CF93F7E0E4EB1091640056
:10071000DADF1A95D0E0C12FEC0FFD1F149105D040
:10072000CF91DF91EF91FF9108950F93012F1091D9
:100730006400123051F410916600103031F0C3DFC4
:1007400011FD03C010FD01C00DE1102F0F910895A0
:100750001F9300BE03BE06BE1F9108951F9312E4AF
:1007600010BF12E013BF1DE716BF1F9108951F931E
:100770002F93E199FCCF0CBA2EBB1DBBE29AE19AF4
:100780002F911F910895E199FECF1EBBE09A1DB3F2
:10079000089500000000000008951F930F9318E2D1
:1007A0000FEFF7DF0A95E9F70FEF1A95D1F70F91E1
:1007B0001F9108951F1C1F1E1F1E1F1F1E1F1E1F7F
:00000001FF
