:020000020000FC
:1000000007C111C010C0189576C01895189518959D
:1000100018951895189518951895CBC0189518959A
:100020001895189518951F9384D310B31C70183029
:1000300029F0143029F0103029F00EC00FD00CC078
:1000400048D00AC010B31C701C30E1F75394152D32
:10005000183008F0552481D21F9118951F930F93E3
:10006000829BFECFD3D144275395513019F15230A2
:1000700021F1533021F1543011F1553011F1563046
:1000800011F1573011F1583001F1593008F41EC008
:100090001CD21091630002D3012F1DD3011738F039
:1000A00036E87FD186D1EAD2312F83D17DD158D3A2
:1000B00055270CC00AD249D309C007D207C010D2B5
:1000C00005C018D203C02BD201C01ED20F911F91C0
:1000D00018951F93839BFECF503011F083D209C037
:1000E0004395433008F401C0442714EE1DBD17EDBD
:1000F0001CBD1F9118951F932F933F93503099F07B
:100100005130A1F05230C9F05330F1F0543019F1B0
:10011000553041F1563069F1573069F1583091F15D
:100120005930B9F142C068D026D13FC020916B0050
:1001300030916C0011E0FED138C0209169003091FF
:100140006A0012E0F7D131C020916D0030916E004D
:1001500011E0F0D12AC020916F003091700012E0C0
:10016000E9D123C0209173003091740012E0E2D1F4
:100170001CC096D01AC0209177003091780011E011
:10018000D9D113C02091790030917A0012E0D2D1F8
:100190000CC0F1D2FF27EBE62191319111E0CAD1D9
:1001A0002191308112E0C6D1EFD23F912F911F9162
:1001B00018951F933F9316B71D37D9F0139417FC6A
:1001C00044245F93540F5F91A1F40394102D1330D6
:1001D00081F400246FD134E451D171D16BD131EC71
:1001E0004DD130916C0010E8312730936C0046D12E
:1001F00066D13F911F91189509D1413021F04230CD
:1002000021F063D103C06CD101C074D123D1089512
:100210001FED1DBF10E818B910E816BD13E016BD9C
:100220001FEF1BBB18BB12BB2ABA27BA21BAC29850
:10023000BA9AB89AB99ABB9ABC9A8A98929A8B98A9
:10024000939A1DE01EBD8CD296D211E419BF10E224
:1002500015BF10EC1BBF2224F0E0E2E01DE1112EDF
:100260001A9411F02192FCCFE0E616E11A9511F0F4
:100270002192FCCFF0E0E5E71BE511931FE311931A
:1002800010E097D272D10193F19211E092D26DD128
:100290000193F08211E0512E7894B8D08895FECF6A
:1002A0001F932F933F9330FC37E330FE31E72FE36A
:1002B00012E040D13F912F911F9108951F932F93EA
:1002C0003F933F93322D563029F0573051F058303C
:1002D000B9F024C0132D22E07FD1312E20D1442447
:1002E0001DC010E066D2DAD128E176D1C7D120E076
:1002F00054D23BD100937700F092780005D10EC024
:1003000011E057D2CBD12CE367D1B8D121E045D24F
:100310002CD100937900F0927A00F6D03F913F9172
:100320002F911F9108952F931F930F932BBECDD024
:1003300059E00BD229D2789415E00FEFFAD120B30F
:100340002C702C3028F00A95C9F70FEF1A95B1F7E9
:10035000F89406D210D2B9D0552701E0402EE9D149
:1003600010B31C701C30D9F710EC1BBF78940F91A0
:100370001F912F9108952F931F9330FE0FC040FCC3
:100380000DC010E016D220916200121739F411E06E
:1003900010D220916100121301C0C5DF1F912F916F
:1003A0000895C39AC0D10895C498C598C398BBD185
:1003B00008950F933F93C598BD9A0027083058F4CD
:1003C000C498B1D1369510F4C59A01C0C598C49AA5
:1003D000AAD10395F3CF3F910F9108950F93C5983C
:1003E000BD9800273327073030F409D03695C49ADA
:1003F0009AD10395F8CF03D0C49A0F910895C49869
:1004000092D1B5993068B59B3F7708951F930F93AC
:10041000FF92BF93AF93DF93CF93B0E0A0E6D0E01D
:10042000C7E6BFDF3FEBC5DF1127173050F4D6DF3B
:100430003D931F93132F99D00993F9921F91139510
:10044000F4CFB2DFCF91DF91AF91BF91FF900F91C9
:100450001F9108953F932ED030E410D030D02AD091
:1004600030EC0CD0362F0AD0372F08D0382F06D0DA
:10047000392F04D024D071D03F9108950F933F932A
:100480000027083070F4C098369510F4C19A01C066
:10049000C1980000C09A00000395C0980000C19860
:1004A000F0CFB199FECFB99AC09A0000C0983F91A1
:1004B0000F910895C09AC19A0000C1980895C098FC
:1004C000C1980000C09AC19A089560916B00709124
:1004D0006C0070688091690090916A00BBDF08959C
:1004E00060916D0070916E0080916F00909170002E
:1004F000B1DF08956091750070917600809173006E
:1005000090917400A7DF0895609177007091780052
:1005100070688091790090917A009CDF08951F9314
:1005200067E770E48FE330FC97E330FE91E792DFFA
:100530001F9108953F932F931F93113019F012309C
:1005400021F006C06227732703C08227932700C0CB
:1005500081DF3F912F911F9108953F93352D38688A
:10056000A9DF8CDFACDF3F9108951F93212F2F70FF
:1005700008D0F22E212F207F229503D0022F1F9129
:100580000895203099F0213099F0223099F02330ED
:1005900099F0243099F0253099F0263099F02730E1
:1005A00099F0283099F0293099F014C02FE313C046
:1005B00026E011C02BE50FC02FE40DC026E60BC0CE
:1005C0002DE609C02DE707C027E005C02FE703C0CF
:1005D0002FE601C029E408951395121708F401C00D
:1005E000132F08952F933F93AF93BF93EF93FF93F0
:1005F000322D513079F05230A9F05330D9F05430C7
:1006000021F1553059F1563089F1573079F1583090
:1006100069F12DC0B0E0A2E628E134E8F2E0E5E6B9
:1006200048D025C0B0E0A1E62CE332E8F2E0E5E6F0
:1006300040D01DC0B0E0A3E631E04DD01395212F8E
:1006400036E8F2E0E0E735D012C0B0E0A4E631E0F1
:100650002DE038E8F2E0E0E72CD009C0B0E0A6E6F3
:1006600024E63CE8F2E0EAE724D001C027DEFF916F
:10067000EF91BF91AF913F912F9108952F930F93D9
:10068000212F00272A5012F00395FCCF265F0295F8
:10069000102F2F70122B3F910F9108952F93212F20
:1006A000207F22951F702A9512F0165FFCCF2F91A4
:1006B00008951F931C91F2DF1395121708F401C0DF
:1006C000132F6FDE76DEDADF312F73DE6DDE9EDE16
:1006D00009951F910895FF93EF93DF93CF93F7E070
:1006E000EEEB10916400DADF1A95D0E0C12FEC0F29
:1006F000FD1F149105D0CF91DF91EF91FF910895E7
:100700000F93012F10916400123051F41091660084
:10071000103031F0C3DF11FD03C010FD01C00DE149
:10072000102F0F9108951F931AE01A95F1F71F915A
:1007300008951F930F9310E50FEF0A95F1F70FEF50
:100740001A95D9F70F911F9108951F9311E01BBDC2
:1007500017EE1ABD11E01DBD1DED1CBD1F910895C2
:100760001F9314EE1BBD11EE1ABD14EE1DBD17ED47
:100770001CBD1F9108951F9312E010BF15E013BF19
:1007800019EE16BF1F9108951F9312E410BF12E0D7
:1007900013BF1DE716BF1F9108951F932F93E19973
:1007A000FCCF2CBA2EBB1DBBE29AE19A2F911F9170
:1007B0000895E199FECF1EBBE09A1DB308951F1C5A
:0A07C0001F1E1F1E1F1F1E1F1E1FFD
:00000001FF
