:020000020000FC
:10000000F7C013C04EC018955FC018951895189585
:1000100018951895189518951895B5C018951895B0
:10002000189518951895189518951F930F937ED3CA
:10003000829934C0E5D144275395513019F152309B
:1000400021F1533021F1543011F1553011F1563076
:1000500011F1573011F1583001F1593008F41EC038
:100060002DD21091630017D3012F32D3011738F02E
:1000700066E891D198D1FFD2612F95D18FD16DD300
:1000800055270CC01BD25ED309C018D207C02CD292
:1000900005C034D203C047D201C03AD20F911F919C
:1000A00018951F9343D383990DC0503011F097D208
:1000B00009C04395443008F401C0442714EE1DBD27
:1000C00017ED1CBD1F9118951F932F933F93503030
:1000D00099F0513099F05230C1F05330E9F054307A
:1000E00011F1553039F1563061F1573061F1583026
:1000F00089F15930B1F140C06ED03EC020916B0003
:1001000030916C0011E01BD237C020916900309112
:100110006A0012E014D230C020916D0030916E0060
:1001200011E00DD229C020916F003091700012E0D3
:1001300006D222C0209173003091740012E0FFD1EA
:100140001BC0ABD019C0209177003091780011E02E
:10015000F6D112C02091790030917A0012E0EFD1EF
:100160000BC0FF27E9E62191319112E0E8D12191FE
:10017000308111E0E4D105D3593009F0F6D03F9138
:100180002F911F9118951F936F9316B71D37E9F0A4
:10019000239427FC44244130D9F05F93540F5F919E
:1001A000A1F41394112D133081F411244DD164E482
:1001B00056D14FD149D161EC52D160916C0010E819
:1001C000612760936C004BD144D16F911F911895BA
:1001D00017D17FD1FACF14D1413049F0423021F00C
:1001E000433021F06BD108957FD1089587D10895D0
:1001F0001FED1DBF10E818B910E816BD13E016BDBD
:100200001FEF1BBB18BB12BB0ABA07BA01BAC298D0
:10021000BA9AB89AB99ABD9ABB9A8A988B981DE0F7
:100220001EBD9BD2A5D211E419BF1AE215BF10EC76
:100230001BBF0024F0E0E2E01DE1112E1A9411F042
:100240000192FCCFE0E616E11A9511F00192FCCF85
:10025000F0E0E5E71BE511931FE3119310E0A6D250
:1002600081D10193F19211E0A1D27CD10193F0826E
:1002700061E06868E9D0F3D0ECD0C2D06EE88BD0F2
:1002800092D060E090D08AD060E885D08CD060E0D9
:100290008AD084D078948895FECF1F932F933F9374
:1002A00030FC37E330FE31E72FE312E048D13F91D5
:1002B0002F911F9108951F932F933F936F93302D8C
:1002C000563029F0573051F05830B9F024C0132D72
:1002D00022E07FD1312E27D144241DC010E066D208
:1002E000DAD128E176D1C7D120E054D23BD10093B6
:1002F0007700F09278000CD10EC011E057D2CBD12C
:100300002CE367D1B8D121E045D22CD100937900FC
:10031000F0927A00FDD06F913F912F911F91089537
:100320002F931F930F930BBEC9D059E00BD229D244
:10033000789415E00FEFFAD120B32C702C3028F010
:100340000A95C9F70FEF1A95B1F7F8945527442786
:1003500004D20ED2B3D0222401E0402E10EC1BBFF9
:1003600078940F911F912F9108952F931F9330FE32
:100370000FC040FC0DC010E019D22091620012178E
:1003800039F411E013D220916100121301C0C8DFCB
:100390001F912F910895C59AC3D10895C398C49809
:1003A000C598BED108950F936F93C498BC9A002747
:1003B000083058F4C398B4D1669510F4C49A01C0BB
:1003C000C498C39AADD10395F3CF6F910F9108955F
:1003D0000F93C498BC9800276627073030F409D0E3
:1003E0006695C39A9DD10395F8CF03D0C39A0F9118
:1003F0000895C39895D1B4996068B49B6F770895B8
:100400001F930F93FF92BF93AF93DF93CF93B0E00F
:10041000A0E6D0E0C7E6BFDF6FEBC5DF11271730DE
:1004200050F4D6DF6D931F93162F9CD00993F99249
:100430001F911395F4CFB2DFCF91DF91AF91BF91B0
:10044000FF900F911F910895C09AC19A0000C19822
:100450000895C098C1980000C09AC19A08950F935A
:100460006F930027083070F4C098669510F4C19A15
:1004700001C0C1980000C09A00000395C098000018
:10048000C198F0CFB199FECFB99AC09A0000C09838
:100490006F910F9108956F93D7DF60E4E0DFD9DFAC
:1004A000D3DF60ECDCDF662DDADF672FD8DF682F63
:1004B000D6DF692FD4DFCDDF6F91089560906B0098
:1004C00070916C0070688091690090916A00E3DF20
:1004D00008956090690070916A007068809167006B
:1004E00090916800D8DF089560906D0070916E0063
:1004F00080916F0090917000CEDF0895609075003C
:10050000709176008091730090917400C4DF08951B
:100510006090770070917800706880917900909178
:100520007A00B9DF08951F9317E7612E70E48FE317
:1005300030FC97E330FE91E7AEDF1F9108953F93C3
:100540002F931F93113019F0123021F006C062264C
:10055000732703C08227932700C09DDF3F912F910F
:100560001F9108951F93212F2F7008D0F22E212F55
:10057000207F229503D0022F1F910895203099F0FB
:10058000213099F0223099F0233099F0243099F0FD
:10059000253099F0263099F0273099F0283099F0DD
:1005A000293099F014C02FE313C026E011C02BE5C9
:1005B0000FC02FE40DC026E60BC02DE609C02DE7C5
:1005C00007C027E005C02FE703C02FE601C029E4DC
:1005D00008951395121708F401C0132F08952F934F
:1005E0003F93AF93BF93EF93FF93302D513079F04A
:1005F0005230A9F05330D9F0543021F1553059F12F
:10060000563089F1573079F1583069F12DC0B0E09A
:10061000A2E628E164E8F2E0EEE548D025C0B0E0CB
:10062000A1E62CE362E8F2E0EEE540D01DC0B0E0C8
:10063000A3E631E04DD01395212F66E8F2E0E4E720
:1006400035D012C0B0E0A4E631E02DE068E8F2E079
:10065000E4E72CD009C0B0E0A6E624E66CE8F2E0BE
:10066000EEE724D001C027DEFF91EF91BF91AF915B
:100670003F912F9108952F930F93212F00272A50F8
:1006800012F00395FCCF265F0295102F2F70122BCE
:100690003F910F9108952F93212F207F22951F7056
:1006A0002A9512F0165FFCCF2F9108951F931C918D
:1006B000F2DF1395121708F401C0132F6CDE73DEFE
:1006C000DADF612F70DE6ADE9BDE09951F910895E7
:1006D000FF93EF93DF93CF93F7E0E8EB1091640083
:1006E000DADF1A95D0E0C12FEC0FFD1F149105D071
:1006F000CF91DF91EF91FF9108950F93012F10910A
:100700006400123051F410916600103031F0C3DFF4
:1007100011FD03C010FD01C00DE1102F0F910895D0
:100720001F931AE01A95F1F71F9108951F930F93E5
:1007300010E50FEF0A95F1F70FEF1A95D9F70F9122
:100740001F9108951F9311E01BBD17EE1ABD11E014
:100750001DBD1DED1CBD1F9108951F9314EE1BBD03
:1007600011EE1ABD14EE1DBD17ED1CBD1F910895AD
:100770001F9312E010BF15E013BF19EE16BF1F91B3
:1007800008951F9312E410BF12E013BF1DE716BFB8
:100790001F9108951F932F93E199FCCF0CBA2EBBA4
:1007A0001DBBE29AE19A2F911F910895E199FECF26
:1007B0001EBBE09A1DB308951F1C1F1E1F1E1F1F86
:0407C0001E1F1E1FBB
:00000001FF
