:020000020000FC
:1000000007C111C010C0189576C01895189518959D
:1000100018951895189518951895CBC0189518959A
:100020001895189518951F939CD310B31C70183011
:1000300029F0143029F0103029F00EC00FD00CC078
:1000400048D00AC010B31C701C30E1F75394152D32
:10005000183008F0552499D21F9118951F930F93CB
:10006000829BFECFCED144275395513019F15230A7
:1000700021F1533021F1543011F1553011F1563046
:1000800011F1573011F1583001F1593008F41EC008
:1000900034D2109162001AD3012F35D3011738F0F2
:1000A00036E87BD182D102D3312F7FD179D170D381
:1000B00055270CC022D261D309C01FD207C028D255
:1000C00005C030D203C043D201C036D20F911F9178
:1000D00018951F93839BFECF503011F09BD209C01F
:1000E0004395433008F401C0442714EE1DBD17EDBD
:1000F0001CBD1F9118951F932F933F93503099F07B
:100100005130A1F05230C9F05330F1F0543019F1B0
:10011000553041F1563069F1573069F1583091F15D
:100120005930B9F142C068D022D13FC0209165005A
:100130003091660011E016D238C0209167003091EE
:10014000680012E00FD231C02091690030916A003E
:1001500011E008D22AC020916B0030916C0012E0AF
:1001600001D223C020916D0030916E0012E0FAD1CF
:100170001CC092D01AC0209171003091720011E021
:10018000F1D113C0209173003091740012E0EAD1D4
:100190000CC009D3FF27E5E62191319111E0E2D1AE
:1001A0002191308112E0DED107D33F912F911F9131
:1001B00018951F933F9316B71D37D9F0139417FC6A
:1001C00044245F93540F5F91A1F40394102D1330D6
:1001D00081F4002487D134E469D189D183D131EC11
:1001E00065D13091660010E83127309366005ED10A
:1001F0007ED13F911F91189504D1413021F04230BA
:1002000021F07BD103C084D101C08CD13BD10895B2
:100210001FED1DBF10E818B910E816BD13E016BD9C
:100220001FEF1BBB18BB12BB2ABA27BA21BAC29850
:10023000BA9AB89AB99ABB9ABC9A8A98929A8B98A9
:10024000939A1DE01EBDA4D2AED211E419BF10E2F4
:1002500015BF10EC1BBF2224F0E0E2E01DE1112EDF
:10026000E0E616E11A9511F02192FCCFF0E0EFE6FE
:100270001BE511931FE3119310E0B3D28ED10193CC
:10028000F19211E0AED289D10193F08211E0512EAA
:100290007894B7D08895FECF1F932F933F9330FC6F
:1002A00037E330FE31E72FE312E05CD13F912F912D
:1002B0001F9108951F932F933F933F93322D5630F4
:1002C00029F0573051F05830B9F024C0132D22E0F6
:1002D0009BD1312E3CD144241DC010E082D2F6D1F6
:1002E00028E192D1E3D120E070D257D10093710080
:1002F000F092720021D10EC011E073D2E7D12CE34D
:1003000083D1D4D121E061D248D100937300F0921F
:10031000740012D13F913F912F911F9108952F9317
:100320001F930F932BBEE9D059E027D245D2789482
:1003300015E00FEF16D220B32C702C3028F00A9560
:10034000C9F70FEF1A95B1F7F89422D22CD2D5D075
:10035000552701E0402E05D210B31C701C30D9F790
:1003600010EC1BBF78940F911F912F9108952F933C
:100370001F9330FE0FC040FC0DC010E032D2209120
:100380006100121739F411E02CD220916000121391
:1003900001C0C5DF1F912F910895C39ADCD1089544
:1003A000C498C598C398D7D108950F933F93C59823
:1003B000BD9A0027083058F4C498CDD1369510F472
:1003C000C59A01C0C598C49AC6D10395F3CF3F9191
:1003D0000F9108950F93C598BD98002733270730D4
:1003E00030F408D03695C49AB6D10395F8CF02D030
:1003F0000F910895C498AFD1B5993068B59B3F77F8
:1004000008951F93FF93EF93DF93CF93BF93AF9321
:1004100033E8B0E0A0E6D0E0C7E6F0E0E8E628D0B8
:1004200035E8B0E0A1E6D0E0C5E6F0E0E6E620D0B1
:1004300037E8B0E0A2E6D0E0C9E6F0E0EAE618D09E
:1004400039E8B0E0A3E6D0E0CBE6F0E0ECE610D08F
:100450003DE8B0E0A4E6D0E0CDE6F0E0EEE608D07E
:10046000AF91BF91CF91DF91EF91FF911F910895CF
:1004700094DF9BDFAFDF94DF3C93132F8ED0088394
:10048000F08208953F932ED030E410D030D02AD09F
:1004900030EC0CD0362F0AD0372F08D0382F06D0AA
:1004A000392F04D024D071D03F9108950F933F93FA
:1004B0000027083070F4C098369510F4C19A01C036
:1004C000C1980000C09A00000395C0980000C19830
:1004D000F0CFB199FECFB99AC09A0000C0983F9171
:1004E0000F910895C09AC19A0000C1980895C098CC
:1004F000C1980000C09AC19A0895609165007091FA
:10050000660070688091670090916800BBDF089575
:100510006091690070916A0080916B0090916C000D
:10052000B1DF089560916F007091700080916D004F
:1005300090916E00A7DF0895609171007091720034
:10054000706880917300909174009CDF08951F93F0
:1005500067E770E48FE330FC97E330FE91E792DFCA
:100560001F9108953F932F931F93113019F012306C
:1005700021F006C06227732703C08227932700C09B
:1005800081DF3F912F911F9108953F93352D38685A
:10059000A9DF8CDFACDF3F9108951F93212F2F70CF
:1005A00008D0F22E212F207F229503D0022F1F91F9
:1005B0000895203099F0213099F0223099F02330BD
:1005C00099F0243099F0253099F0263099F02730B1
:1005D00099F0283099F0293099F014C02FE313C016
:1005E00026E011C02BE50FC02FE40DC026E60BC09E
:1005F0002DE609C02DE707C027E005C02FE703C09F
:100600002FE601C029E408951395121708F401C0DC
:10061000132F08952F933F93AF93BF93EF93FF93BF
:10062000322D513079F05230A9F05330D9F0543096
:1006300021F1553059F1563089F1573079F1583060
:1006400069F12DC0B0E0A1E628E134E8F2E0EDE781
:1006500048D025C0B0E0A0E62CE332E8F2E0EDE7B8
:1006600040D01DC0B0E0A2E631E04DD01395212F5F
:1006700036E8F2E0E8E835D012C0B0E0A3E631E0B9
:100680002DE038E8F2E0E8E82CD009C0B0E0A4E6BC
:1006900024E63CE8F2E0E2E924D001C00BDEFF9161
:1006A000EF91BF91AF913F912F9108952F930F93A9
:1006B000212F00272A5012F00395FCCF265F0295C8
:1006C000102F2F70122B3F910F9108952F93212FF0
:1006D000207F22951F702A9512F0165FFCCF2F9174
:1006E00008951F931C91F2DF1395121708F401C0AF
:1006F000132F53DE5ADEDADF312F57DE51DE81DE73
:1007000009951F910895FF93EF93DF93CF93F7E03F
:10071000EEEE10916300DADF1A95D0E0C12FEC0FF6
:10072000FD1F149105D0CF91DF91EF91FF910895B6
:100730000F93012F10916300123051F41091640057
:10074000103031F0C3DF11FD03C010FD01C00DE119
:10075000102F0F9108951F931AE01A95F1F71F912A
:1007600008951F930F9310E50FEF0A95F1F70FEF20
:100770001A95D9F70F911F9108951F9311E01BBD92
:1007800017EE1ABD11E01DBD1DED1CBD1F91089592
:100790001F9314EE1BBD11EE1ABD14EE1DBD17ED17
:1007A0001CBD1F9108951F9312E010BF15E013BFE9
:1007B00019EE16BF1F9108951F9312E410BF12E0A7
:1007C00013BF1DE716BF1F9108951F932F93E19943
:1007D000FCCF2CBA2EBB1DBBE29AE19A2F911F9140
:1007E0000895E199FECF1EBBE09A1DB308951F1C2A
:0A07F0001F1E1F1E1F1F1E1F1E1FCD
:00000001FF
