:020000020000FC
:10000000F9C013C04CC018955DC018951895189587
:1000100018951895189518951895BCC018951895A9
:10002000189518951895189518951F930F93B4D394
:10003000829932C0D8D144275395513011F15230B2
:1000400001F1533001F15430F1F05530F1F05630F8
:10005000F1F05730F1F05830E1F05930E1F028D2AA
:10006000109163002CD3012F47D3011738F066E8B5
:1000700085D18CD114D3612F89D183D165D35527F4
:100080000BC016D209C02AD207C032D205C045D251
:1000900003C038D201C04FD20F911F9118951F9302
:1000A0007BD383990DC0503011F09CD209C0439589
:1000B000433008F401C0442711E01DBD1DED1CBDF7
:1000C0001F9118951F932F933F935030A9F05130F3
:1000D000A9F05230D1F05330F9F0543021F15530BD
:1000E00049F1563071F1573071F1583099F159306A
:1000F000C1F15A30E9F147C072D045C020916B0080
:1001000030916C0011E01ED23EC020916900309108
:100110006A0012E017D237C020916D0030916E0056
:1001200011E010D230C020916F003091700012E0C9
:1001300009D229C0209173003091740012E002D2DC
:1001400022C0BAD020C0209178003091790011E00F
:10015000F9D119C020917A0030917B0012E0F2D1E0
:1001600012C0209100003091750012E0EBD10BC05D
:10017000FF27E9E62191319112E0E4D1219130810C
:1001800011E0E0D1EAD25A3009F0DCD03F912F9152
:100190001F9118951F936F9316B71D37D1F05F937A
:1001A000540F5F91B1F44130B9F01394112D153013
:1001B00080F011243CD164E445D13ED138D161ECCA
:1001C00041D160916C0010E8612760936C003AD1D6
:1001D00033D16F911F91189506D175D1FACF03D104
:1001E000413031F0423011F063D103C077D101C00A
:1001F0006AD108951FED1DBF10E818B910E816BDAB
:1002000013E016BD1FEF1BBB18BB12BB0ABA07BA1F
:1002100001BAC298BA9AB89AB99ABD9ABB9A8A9802
:100220008B981DE01EBD11E01BBD17EE1ABD11E03D
:100230001DBD1DED1CBD88D211E419BF1AE215BF0A
:1002400010EC1BBF0024F0E0E2E01DE1112E1A9437
:1002500011F00192FCCFE0E61CE11A9511F0019239
:10026000FCCFF0E0E6E71BE511931FE3119311E0EB
:1002700089D27BD10193F19212E084D276D101939D
:10028000F08213E07FD2212F7CD120937500612F63
:1002900008D1A9D0A8D06EE871D078D060E076D02F
:1002A00070D060E86BD072D0609160006F776ED0D4
:1002B00068D078948895FECF1F932F933F9310E0DA
:1002C00061D210FD37E310FF31E72FE312E03AD19E
:1002D0003F912F911F9108951F932F933F936F93F9
:1002E000302D563029F0573059F05830C1F025C024
:1002F00010E048D222E070D120E038D20ED11DC0EB
:1003000011E040D2DCD128E167D1C9D121E02ED261
:100310002CD100937800F0927900F4D00EC012E056
:1003200031D2CDD12CE358D1BAD122E01FD21DD188
:1003300000937A00F0927B00E5D06F913F912F916E
:100340001F9108952F931F9310E01CD210FF13C02C
:1003500011E018D220916200121769F412E012D253
:1003600020916100121739F420916000203019F4B7
:100370009FD05AE0F2D11F912F910895C59A08D2CB
:100380000895C398C498C59803D208950F936F93A6
:10039000C498BC9A0027083058F4C398F9D16695E0
:1003A00010F4C49A01C0C498C39AF2D10395F3CF54
:1003B0006F910F9108950F93C498BC9800276627FA
:1003C000073030F409D06695C39AE2D10395F8CF8F
:1003D00003D0C39A0F910895C398DAD1B499606895
:1003E000B49B6F7708951F930F93FF92BF93AF93C2
:1003F000DF93CF93B0E0A0E6D0E0C7E6BFDF6FEBBE
:10040000C5DF1127173050F4D6DF6D931F93162FD9
:10041000ACD00993F9921F911395F4CFB2DFCF912D
:10042000DF91AF91BF91FF900F911F910895C09AF6
:10043000C19A0000C1980895C098C1980000C09A60
:10044000C19A08950F936F930027083070F4C098F5
:10045000669510F4C19A01C0C1980000C09A0000CE
:100460000395C0980000C198F0CFB199FECFB99A1A
:10047000C09A0000C0986F910F9108956F93D7DFD5
:1004800060E4E0DFD9DFD3DF60ECDCDF662DDADFAC
:10049000672FD8DF682FD6DF692FD4DFCDDF6F91CC
:1004A00008956F936868C3DFCDDFC6DF6F9108954D
:1004B00060906B0070916C00706880916900909101
:1004C0006A00DCDF08956090690070916A007068CE
:1004D0008091670090916800D1DF089560906D0071
:1004E00070916E0080916F0090917000C7DF089549
:1004F0006090760070917700809173009091740005
:10050000BDDF0895609078007091790070688091E7
:100510007A0090917B00B2DF08951F9317E7612E58
:1005200070E48FE310E02ED110FD97E310FF91E708
:10053000A5DF1F910895602C702D802D909175007E
:100540009DDF08953F932F931F93113019F01230C0
:1005500021F006C06226732703C08227932700C0BC
:100560008DDF3F912F911F9108951F93212F2F70A1
:1005700008D0F22E212F207F229503D0022F1F9129
:100580000895203099F0213099F0223099F02330ED
:1005900099F0243099F0253099F0263099F02730E1
:1005A00099F0283099F0293099F014C02FE313C046
:1005B00026E011C02BE50FC02FE40DC026E60BC0CE
:1005C0002DE609C02DE707C027E005C02FE703C0CF
:1005D0002FE601C029E408951395121708F401C00D
:1005E000132F08952F933F93AF93BF93EF93FF93F0
:1005F000302D513089F05230B9F05330E9F0543099
:1006000031F1553069F1563099F1573089F1583050
:1006100079F1593079F13CC0B0E0A2E628E164E814
:10062000F2E0E8E557D034C0B0E0A1E62CE362E8A0
:10063000F2E0E8E54FD02CC0B0E0A3E631E05CD0BA
:100640001395212F66E8F2E0EEE644D021C0B0E039
:10065000A4E631E02DE068E8F2E0EEE63BD018C019
:10066000B0E0A6E624E66CE8F2E0E8E733D010C09C
:1006700033DE0EC013E086D030E028E0ADDF23E0AB
:1006800075D0212F7EDF20937500612F0ADF53DFA5
:10069000FF91EF91BF91AF913F912F9108952F93CB
:1006A0000F93212F00272A5012F00395FCCF265FCD
:1006B0000295102F2F70122B3F910F9108952F93B9
:1006C000212F207F22951F702A9512F0165FFCCFF4
:1006D0002F9108951F931C91F2DF1395121708F4C0
:1006E00001C0132F4BDE52DEDADF612F4FDE49DE11
:1006F0007ADE09951F910895FF93EF93DF93CF93CF
:10070000F7E0E2EB10916400DADF1A95D0E0C12F38
:10071000EC0FFD1F149105D0CF91DF91EF91FF9168
:1007200008950F93012F10916400123051F410912D
:100730006600103031F0C3DF11FD03C010FD01C0B1
:100740000DE1102F0F9108951F9312E010BF15E0D7
:1007500013BF19EE16BF1F9108951F9312E410BF27
:1007600012E013BF1DE716BF1F9108951F932F932B
:10077000E199FCCF0CBA2EBB1DBBE29AE19A2F91F6
:100780001F910895E199FECF1EBBE09A1DB3089515
:1007900000000000000008951F930F9318E20FEF70
:1007A000F7DF0A95E9F70FEF1A95D1F70F911F912F
:0E07B00008951F1C1F1E1F1E1F1F1E1F1E1F31
:00000001FF
