:020000020000FC
:10000000D9C011C057C018956DC01895189518958E
:1000100018951895189518951895AAC018951895BB
:100020001895189518951F930F9325D110E01093EC
:100030006100109162001395113011F1123069F1D5
:10004000133071F1143071F1153071F1163008F47C
:100050002CC053D1A1D0B1D11091650074D2012F21
:100060008FD2011738F086E8D4D0DCD0812F5BD254
:10007000D9D0D2D01DE11BBD1BE41ABD10E015C0C4
:1000800092D042D19AD183D100E00BBD0EE30ABDDC
:1000900000E00DBD04E30CBD08C08FD178D105C0D0
:1000A00096D103C094D101C09DD1109362000F91ED
:1000B0001F9118951F9377D010916200103011F0A6
:1000C000EFD10EC0109161001395133008F402C0F7
:1000D00063D010E0109361001DE11DBD11E41CBD53
:1000E0001F9118951F932F933F931091620010302A
:1000F00051F01130B9F01230E1F0133009F1143041
:1001000031F1153059F1B7D010916100113021F063
:10011000123021F052D103C05AD101C063D110E096
:10012000FAD022C0209168003091690011E064D1BA
:100130001BC020916A0030916B0012E05DD114C0A9
:1001400020916C0030916D0011E056D10DC02091CE
:100150006E0030916F0012E04FD106C02091720006
:100160003091730013E048D13F912F911F91189562
:100170001F938F9303D184E4E5D004D1FFD083ECA7
:10018000E1D080916B0010E8812780936B00DAD07A
:10019000F9D08F911F9118951F9312E010BF15E0B1
:1001A00013BF1F9108951F9310E010BF10E013BFFD
:1001B0001F9108951FED1DBF10E818B916BD10E07E
:1001C00016BD1FEF1BBB18BB12BBB89ABB9ABC9ADB
:1001D000B99A8A988B981DE01EBD1DE11BBD1BE4DA
:1001E0001ABDDADF1EE316BF11E419BF1AE015BF0E
:1001F00010EC1BBF78941BE5109370001FE3109365
:10020000710070DFFFCF1F1C1F1E1F1E1F1F1E1F30
:100210001E1FC49A00000895C198C298C498BA9A43
:10022000C29808951F938F93BA9AC29810E018301D
:1002300050F4C198869510F4C29A01C0C298C19A30
:1002400000001395F4CF8F911F9108951F93C298CA
:10025000BA9810E080E0173028F407D08695C19A4C
:100260001395F9CF02D01F910895C198B299806873
:10027000B29B8F7708951F93FF93EF93DF93CF93F4
:10028000BF93AF9383E8B0E0A3E6D0E0CAE6F0E026
:10029000EBE62DD085E8B0E0A4E6D0E0C8E6F0E0DB
:1002A000E9E625D087E8B0E0A5E6D0E0CCE6F0E0CE
:1002B000EDE61DD089E8B0E0A6E6D0E0CEE6F0E0BD
:1002C000EFE615D08DE8B0E0A7E6D0E0C2E7F0E0B9
:1002D000E3E70DD0AF91BF91CF91DF91EF91FF9107
:1002E0001F91089596DF9EDFB1DF96DF0895FADF54
:1002F0008C939FD00883F08208958BDF80E892DF93
:1003000080E090DF89DF089584DF80E88BDF80E87C
:1003100089DF82DF08958F9331D080E413D032D00B
:100320002DD080EC0FD0842F0DD0852F0BD0862FB1
:1003300009D0872F07D026D021D08FE803D022D034
:100340008F9108951F938F9310E0183070F4C09828
:10035000869510F4C39A01C0C3980000C09A0000AB
:100360001395C0980000C398F0CFB399FECFBB9A05
:10037000C09A0000C0988F911F910895C09AC39AA7
:10038000C3980895C098C398C09AC39A08951F93BC
:1003900011E0109360007068BEDF1F9108951F93F5
:1003A00010E0109360007F77B6DF1F91089540E45E
:1003B00050E460E470E4AFDF08954091680050912C
:1003C000690060916A0070916B00A5DF089540910B
:1003D0006C0050916D00506860916E0070916F00DC
:1003E0009ADF089540917000509171006091720001
:1003F0007091730090DF08951F932F933F931130F6
:1004000029F0123031F0133039F00EC04227532753
:100410000BC06227732708C010917000412710910C
:10042000710051276227732776DF3F912F911F912B
:1004300008951F93182F1F7008D0F12E182F107FCA
:10044000129503D0012F1F910895103099F01130AB
:1004500099F0123099F0133099F0143099F015306A
:1004600099F0163099F0173099F0183099F019304A
:1004700099F014C01FE313C016E011C01BE50FC0B4
:100480001FE40DC016E60BC01DE609C01DE707C03E
:1004900017E005C01FE703C01FE601C019E4089577
:1004A0001F932F933F9310916200113049F0123047
:1004B00089F01330C9F0143011F1153049F12FC013
:1004C000B0E0A4E630E028E184E8F1E0EDED46D0CC
:1004D0005EDF25C0B0E0A3E630E02CE382E8F1E087
:1004E000EDED3CD054DF1BC0B0E0A5E631E048D0D4
:1004F0001395212F86E8F1E0E7EE30D010C0B0E090
:10050000A6E631E02DE088E8F1E0E7EE27D007C06D
:10051000B0E0A7E624E68CE8F1E0E2EF1FD03F91DF
:100520002F911F9108952F933F93282F30E02A5049
:1005300012F03395FCCF265F3295832F2F70822BDC
:100540003F912F9108952F93212F207F22951F7087
:100550002A9512F0165FFCCF2F9108951F931C91DE
:10056000F2DF1395121708F401C0132F52DE5ADE82
:10057000812FD9DF57DE50DE7EDE09951F91089569
:10058000F2E0E6E010916600DEDF1A95D0E0C12FC0
:10059000EC0FFD1F149101D008950F93012F1091BE
:1005A0006600123051F410916700103031F0CBDF4B
:1005B00011FD03C010FD01C00DE1102F0F91089532
:00000001FF
