:020000020000FC
:10000000A5C011C02EC0189546C018951895189512
:100010001895189518951895189518951895189578
:100020001895189518951F932F9320916400239588
:10003000213049F0263008F40FC020E01EE11BBD3E
:1000400015E81ABD09C01FE01BBD12E41ABD10E07F
:100050001DBD1CBDD7D000C0209364002F911F91FF
:1000600018951F9310916400103009F012C010E031
:100070001EBD36D1109163001395133008F401C0F2
:1000800010E0109363001DE01EBD15E11DBD1CE5D1
:100090001CBD1F9118951F932F9310916400103071
:1000A00031F01130B1F0123031F11330B1F1109163
:1000B0006300103021F0113029F0123031F015E8D2
:1000C00023E804C017E829E801C02DE863D1C0D0B7
:1000D0003AC0809166000AD11091600041271091CA
:1000E000610051278091650001D16091600070919D
:1000F0006100AED028C080916500F8D010916000FA
:10010000612710916100712780916600EFD04091C6
:100110006000509161009CD016C080916700E6D0CD
:100120004091600050916100109160004127109152
:100130006100512780916800D9D060916000709172
:10014000610086D000C02F911F9118951FED1DBF33
:1001500010E816BD10E016BD10E818B9B89AC0989E
:10016000BB9ABC9AB89AB99AC098C1988A98929A40
:100170008B98939A1DE01EBD1EE11BBD15E81ABDAC
:1001800010E419BF1AE015BF10EC1BBF7894A8D07B
:10019000FFCFC09A00000895C198C2980000C0988F
:1001A000000008952F931F930F93BA9AC29810E0FE
:1001B000183070F4C198869520E000E0020710F432
:1001C000C29A01C0C2980000C19A00001395F0CFF6
:1001D0000F911F912F9108952F931F93C298BA9852
:1001E00010E080E0173058F4C198B2998068B29B53
:1001F0008F7786950000C19A00001395F3CF1F9169
:100200002F9108951F93C5DF83E8CCDFE5DF80934E
:100210006500C2DFBEDF85E8C5DFDEDF80936600F4
:10022000BBDFB7DF87E8BEDFD7DF80936700B4DFCF
:10023000B0DF89E8B7DFD0DF80936800ADDFA9DFEA
:100240008DE8B0DFC9DF80936900A6DF1F910895B4
:1002500030D000E413D031D02CD000EC0FD0042FDC
:100260000DD0052F0BD0062F09D0072F07D025D092
:1002700020D00FE803D021D00000089518E0C398E3
:10028000202F2170213011F4C49A02C0C49800C0FC
:1002900000000695C39A00001A95103081F7C398A4
:1002A0000000BC98B499FECFBC9AC39A0000C398D2
:1002B0000895C39AC49AC4980895C398C498C39AD9
:1002C000C49A08951F9311E01093620070681F9103
:1002D00008951F9310E0109362007F771F91089597
:1002E00040E450E460E470E4B3DF08951F93182FF6
:1002F0001F700DD01091600010936100182F1077BF
:10030000169516951695169502D01F9108951F9370
:10031000103099F01130A9F01230B9F01330C9F053
:100320001430D9F01530E9F01630F9F0173009F132
:10033000183019F1193029F128C01FE3109360001B
:1003400027C016E01093600023C01BE510936000E7
:100350001FC01FE4109360001BC016E610936000DE
:1003600017C01DE61093600013C01DE710936000D6
:100370000FC017E0109360000BC01FE710936000E0
:1003800007C01FE61093600003C019E410936000DB
:100390001F9108951F932F932D3879F4FADE822F41
:1003A00001DF1ADFF9DEA2DF4BE55FE36091600059
:1003B000709161008EDF5F7724C0EBDE812FF2DE6B
:1003C0000BDFEADE93DF4091600050916100E1DED7
:1003D000822FE8DE01DFE0DE89DF6091600070914E
:1003E000610010916300103011F0113041F0109154
:1003F000620010FD6EDF10FF65DF5F7702C069DF0E
:0804000050682F911F9108952F
:00000001FF
