:020000020000FC
:10000000C1C011C038C0189554C0189518951895DE
:100010001895189518951895189599C018951895CC
:100020001895189518951F9310E010936300109180
:1000300064001395113079F0123089F0133091F08B
:10004000143091F0153091F0163008F410C044D1FE
:10005000A9D110E00CC047D1A5D18ED108C0A2D142
:100060008BD105C0A9D103C0A7D101C0B0D11093D5
:1000700064001F9118951F9310916400103011F0C7
:1000800021D215C010E01EBD87D1109163001395D9
:10009000133008F401C010E0109363001DE01EBD92
:1000A0001FE01DBD12E41CBD1CE310936B001F91EB
:1000B00018951F932F933F9310916400103051F0C7
:1000C0001130F9F0123021F1133049F1143071F18F
:1000D000153099F110916B0013951C3308F40DC085
:1000E000B5D010916300113021F0123021F05AD1B7
:1000F00003C062D101C06BD110E010936B00FAD045
:1001000022C020916C0030916D0011E06AD11BC0BB
:1001100020916E0030916F0012E063D114C02091E5
:1001200070003091710011E05CD10DC0209172001F
:100130003091730012E055D106C0209176003091C5
:10014000770013E04ED13F912F911F9118951F9387
:100150000F931091630000916400012B71F41091D2
:100160006A0013951F3008F408C010916200103027
:1001700011F00AD101C000D110E010936A000F9174
:100180001F9118951FED1DBF10E816BD10E016BD9C
:1001900010E818B9B89AC098BB9ABC9AB89AB99A9C
:1001A000C098C1988A98929A8B98939A1DE01EBD28
:1001B0001FE01BBD12E41ABD12E010BF15E013BF13
:1001C0001AEF16BF11E419BF1AE015BF10EC1BBFE0
:1001D0007894E2D01CE310936B001BE5109374003D
:1001E0001FE310937500FFCFC09A00000895C198D7
:1001F000C2980000C098000008951F938F93BA9A88
:10020000C29810E0183058F4C198869510F4C29A3C
:1002100001C0C2980000C19A00001395F3CF8F91DE
:100220001F9108951F93C298BA9810E080E017308C
:1002300058F4C198B2998068B29B8F778695000078
:10024000C19A00001395F3CF1F9108951F93FF9358
:10025000EF93DF93CF93BF93AF9383E8B0E0A5E62E
:10026000D0E0CEE6F0E0EFE62DD085E8B0E0A6E6FF
:10027000D0E0CCE6F0E0EDE625D087E8B0E0A7E6F8
:10028000D0E0C0E7F0E0E1E71DD089E8B0E0A8E603
:10029000D0E0C2E7F0E0E3E715D08DE8B0E0A9E6F2
:1002A000D0E0C6E7F0E0E7E70DD0AF91BF91CF9186
:1002B000DF91EF91FF911F91089596DF9EDFB2DFEE
:1002C00096DF0895FADF8C93A9D01091600018830F
:1002D000109161001083089587DF80E88EDF80E051
:1002E0008CDF85DF089580DF80E887DF80E885DFA9
:1002F0007EDF08950F931F932F933F9334D000E434
:1003000017D035D030D000EC13D0042F11D0052FEA
:100310000FD0062F0DD0072F0BD029D024D00FE8F7
:1003200007D025D000003F912F911F910F91089584
:1003300018E0C398202F2170213011F4C49A02C014
:10034000C49800C000000695C39A00001A951030AA
:1003500081F7C3980000BC98B499FECFBC9AC39AA9
:100360000000C3980895C39AC49AC4980895C39886
:10037000C498C39AC49A08951F9311E01093620021
:100380007068B8DF1F9108951F9310E0109362000A
:100390007F77B0DF1F91089540E450E460E470E49B
:1003A000A9DF089540916C0050916D0060916E003E
:1003B00070916F009FDF089540917000509171001F
:1003C0005068609172007091730094DF08954091BD
:1003D00074005091750060917600709177008ADF0B
:1003E00008951F932F933F93113029F0123031F06D
:1003F000133039F00EC0422753270BC062277327F2
:1004000008C0109174004127109175005127622790
:10041000732770DF3F912F911F9108951F93182F1D
:100420001F700DD01091600010936100182F10778D
:10043000169516951695169502D01F9108951F933F
:10044000103099F01130A9F01230B9F01330C9F022
:100450001430D9F01530E9F01630F9F0173009F101
:10046000183019F1193029F128C01FE310936000EA
:1004700027C016E01093600023C01BE510936000B6
:100480001FC01FE4109360001BC016E610936000AD
:1004900017C01DE61093600013C01DE710936000A5
:1004A0000FC017E0109360000BC01FE710936000AF
:1004B00007C01FE61093600003C019E410936000AA
:1004C0001F9108951F932F933F9310916400113053
:1004D00049F0123081F01330B9F01430F1F01530DA
:1004E00029F12BC0B0E0A6E630E028E184E8F1E095
:1004F000E2ED42D022C0B0E0A5E630E02CE382E895
:10050000F1E0E2ED39D019C0B0E0A7E631E020E239
:1005100086E8F1E0ECED30D010C0B0E0A8E631E0C4
:100520002DE088E8F1E0ECED27D007C0B0E0A9E6C7
:1005300024E68CE8F1E0E7EE1FD03F912F911F9168
:1005400008952F933F93282F30E02A5012F03395CF
:10055000FCCF265F3295832F2F70822B3F912F91F6
:1005600008952F93212F207F22951F702A9512F036
:10057000165FFCCF2F9108951F931C91F2DF139506
:10058000121708F401C0132F2FDE37DE812FD9DFB9
:0C05900034DE2DDE5BDE09951F9108951E
:00000001FF
