:020000020000FC
:10000000C1C011C038C0189554C0189518951895DE
:100010001895189518951895189599C018951895CC
:100020001895189518951F9310E010936300109180
:1000300064001395113079F0123089F0133091F08B
:10004000143091F0153091F0163008F410C04DD1F5
:10005000B2D110E00CC050D1AED197D108C0ABD115
:1000600094D105C0B2D103C0B0D101C0B9D11093B1
:1000700064001F9118951F9310916400103011F0C7
:100080002AD215C010E01EBD90D1109163001395C7
:10009000133008F401C010E0109363001DE01EBD92
:1000A0001FE01DBD12E41CBD1CE310936B001F91EB
:1000B00018951F932F933F9310916400103051F0C7
:1000C0001130F9F0123021F1133049F1143071F18F
:1000D000153099F110916B0013951C3308F40DC085
:1000E000B5D010916300113021F0123021F063D1AE
:1000F00003C06BD101C074D110E010936B0003D129
:1001000022C020916C0030916D0011E073D11BC0B2
:1001100020916E0030916F0012E06CD114C02091DC
:1001200070003091710011E065D10DC02091720016
:100130003091730012E05ED106C0209176003091BC
:10014000770013E057D13F912F911F9118951F937E
:100150000F931091630000916400012B71F41091D2
:100160006A0013951F3008F408C010916200103027
:1001700011F013D101C009D110E010936A000F9162
:100180001F9118951FED1DBF10E816BD10E016BD9C
:1001900010E818B9B89AC098BB9ABC9AB89AB99A9C
:1001A000C098C1988A98929A8B98939A1DE01EBD28
:1001B0001FE01BBD12E41ABD12E010BF15E013BF13
:1001C0001AEF16BF11E419BF1AE015BF10EC1BBFE0
:1001D0007894EBD01CE310936B001BE51093740034
:1001E0001FE310937500FFCFC09A00000895C198D7
:1001F000C2980000C098000008951F938F93BA9A88
:10020000C29810E0183058F4C198869510F4C29A3C
:1002100001C0C2980000C19A00001395F3CF8F91DE
:100220001F9108951F93C298BA9810E080E017308C
:1002300058F4C198B2998068B29B8F778695000078
:10024000C19A00001395F3CF1F9108951F9383E87F
:1002500047D080936500EBD01091600010936E0042
:100260001091610010936F0085E83AD0809366008A
:10027000DED01091600010936C001091610010931B
:100280006D0087E82DD080936700D1D01091600079
:1002900010937000109161001093710089E820D0D4
:1002A00080936800C4D01091600010937200109188
:1002B0006100109373008DE813D080936900B7D06C
:1002C0001BE5109374001FE31093750010916000FC
:1002D0001093760010916100109377001F9108959C
:1002E00083DF8BDF9FDF83DF08957EDF80E885DF9C
:1002F00080E083DF7CDF089577DF80E87EDF80E8C1
:100300007CDF75DF08950F931F932F933F9334D0B5
:1003100000E417D035D030D000EC13D0042F11D02A
:10032000052F0FD0062F0DD0072F0BD029D024D0AA
:100330000FE807D025D000003F912F911F910F911A
:10034000089518E0C398202F2170213011F4C49A29
:1003500002C0C49800C000000695C39A00001A9518
:10036000103081F7C3980000BC98B499FECFBC9AB6
:10037000C39A0000C3980895C39AC49AC498089574
:10038000C398C498C39AC49A08951F9311E0109318
:1003900062007068B8DF1F9108951F9310E01093FA
:1003A00062007F77B0DF1F91089540E450E460E47D
:1003B00070E4A9DF089540916C0050916D00609148
:1003C0006E0070916F009FDF089540917000509112
:1003D00071005068609172007091730094DF08950D
:1003E0004091740050917500609176007091770093
:1003F0008ADF08951F932F933F93113029F0123015
:1004000031F0133039F00EC0422753270BC062275A
:10041000732708C01091740041271091750051276F
:100420006227732770DF3F912F911F9108951F93CB
:10043000182F1F700DD01091600010936100182FBD
:100440001077169516951695169502D01F9108955A
:100450001F93103099F01130A9F01230B9F0133019
:10046000C9F01430D9F01530E9F01630F9F0173032
:1004700009F1183019F1193029F128C01FE3109340
:10048000600027C016E01093600023C01BE51093A6
:1004900060001FC01FE4109360001BC016E610939D
:1004A000600017C01DE61093600013C01DE7109395
:1004B00060000FC017E0109360000BC01FE710939F
:1004C000600007C01FE61093600003C019E410939A
:1004D00060001F9108951F932F933F931091640024
:1004E000113049F0123081F01330B9F01430F1F0CE
:1004F000153029F12BC0B0E0A6E630E028E184E811
:10050000F1E0EBED42D022C0B0E0A5E630E02CE314
:1005100082E8F1E0EBED39D019C0B0E0A7E631E0B8
:1005200020E286E8F1E0E5EE30D010C0B0E0A8E6C9
:1005300031E02DE088E8F1E0E5EE27D007C0B0E03B
:10054000A9E624E68CE8F1E0E0EF1FD03F912F917F
:100550001F9108952F933F93282F30E02A5012F0D7
:100560003395FCCF265F3295832F2F70822B3F91DE
:100570002F9108952F93212F207F22951F702A9568
:1005800012F0165FFCCF2F9108951F931C91F2DF9C
:100590001395121708F401C0132F26DE2EDE812FCB
:0E05A000D9DF2BDE24DE52DE09951F9108956F
:00000001FF
